:100000000A128A11F52F00308A000408840A820738
:10001000003456343A34203420342034723470346E
:100020006D34003454343A342034203420342034B5
:100030004334003453343A34203420343A340034D6
:10009A000A128A116B20111408000A128A116B20A5
:1000AA00111508000A128A116B20911408000A120D
:1000BA008A116B2070088312930008006400800183
:1000CA00840A0406031900340406642883160313F9
:1000DA0014196B2811081F39031908006B280030FE
:1000EA000A128A11A8200A128A1101300A128A11E8
:1000FA00A8200800F300F201731C87287008F10099
:10010A007108F2070310F00D0310F30C7308031DB6
:10011A00812872080800F000701C962883120816BD
:10012A00982883120812F01C9C2888169D28881289
:10013A00701DA1280817A2280813F01DA6288817E1
:10014A00080088130800F3008312031308117308C8
:10015A000A128A1190200A128A1188150B30F200AD
:10016A006230F100F10BB728F20BB72800008312B6
:10017A00031388110800F80078080F39F500780889
:10018A00F40004300310F40CFF3E031DC728740862
:10019A000F39F6000A30F00076080A128A117F2019
:1001AA007507F70077080800F3000830F400F50136
:1001BA007308F10007300310F10CFF3E031DE0281D
:1001CA007508F20072077104F5000310F30D700848
:1001DA007502031CF2287008F5020130F402031DAF
:1001EA00DD2875080800F200F401700803191729C0
:1001FA00F301F30AF01B08290310F00D0130F10096
:10020A007108F307FF280310F40D70087202031C2B
:10021A0012297008F20274140310F00C0130F30270
:10022A00031D082974080800F700F501F60175088E
:10023A00770784000A128A1103200A128A11003AE7
:10024A00031908007508770784000A128A11032027
:10025A000A128A110A128A11B5210A128A11013068
:10026A00F5070318F60A0030F6071C290A128A1144
:10027A006B200A128A1191150A128A116B200A122E
:10028A008A1183121308F200F3017208F40073084A
:10029A00F5000A128A116B200A128A11700371047E
:1002AA00031D592991125A29911611167508F10040
:1002BA007408F00008000A128A114D200A128A11E5
:1002CA00A130F0000030F1000A128A115C200A12F3
:1002DA008A110030F000F1000A128A113B210A1239
:1002EA008A1170088312B1000A128A1152200A1266
:1002FA008A1104308312B8000230B90031080A1298
:10030A008A11F5230800031788018901031388015C
:10031A0083128801FE3083168600FE30831286001F
:10032A00FE308316950081130B3083120313BF002E
:10033A002630BE005D30BD00BD0BA129BE0BA12930
:10034A00BF0BA129003083120313B8000130B70094
:10035A008630B600A030B5000A128A11E6210800DC
:10036A00F40074080F39F2007408F039F3008312AC
:10037A00031308157308F10004300310F10CFF3E53
:10038A00031DC22971080A128A1190200A128A11C1
:10039A0088151A30F100F10BD029000083120313DB
:1003AA00881172080A128A1190200A128A11881575
:1003BA001A30F100F10BDF290000831203138811B0
:1003CA000800283094008316910183123508B90079
:1003DA003608BA003708BB003808BC0002300310E0
:1003EA00B90DBA0DBB0DBC0DFF3E031DF4293C0827
:1003FA00F3003B08F2003A08F1003908F000003037
:10040A00F7007A30F6001230F5000030F4000A12D4
:10041A008A119C247008FF3E831693009401871565
:10042A0007160800700871040319442AF501F50A31
:10043A00F11B2B2A01300310F00DF10DFF3E031DB5
:10044A00202A0130F4007408F5071D2A7108730286
:10045A00031D312A70087202031C392A7008F2023D
:10046A007108031CF303F30201300310F10CF00CC2
:10047A00FF3E031D3A2A0130F502031D2B2A730899
:10048A00F1007208F0000800F5000A128A114D20E6
:10049A000A128A11D030F0000030F1000A128A11D3
:1004AA005C200A128A110030F000F1000A128A1147
:1004BA005C200A128A117508F300F4017308F0002F
:1004CA007408F1000A128A115C200A128A11720851
:1004DA00F300F4017308F0007408F1000A128A119B
:1004EA005C200A128A110A128A1152200800F000AE
:1004FA007008031D822A303008007003031D872A02
:10050A003130080002307006031D8D2A323008008F
:10051A0003307006031D932A333008000430700636
:10052A00031D992A3430080005307006031D9F2ADE
:10053A003530080006307006031DA52A363008003B
:10054A0007307006031DAB2A3730080008307006E2
:10055A00031DB12A3830080009307006031D08004F
:10056A0039300800F501F601700871040319EE2A02
:10057A00F701F70AF11BCD2A01300310F00DF10D36
:10058A00FF3E031DC22A0130F4007408F707BF2A90
:10059A0001300310F50DF60DFF3E031DCE2A71083A
:1005AA007302031DDA2A70087202031CE32A700818
:1005BA00F2027108031CF303F302751401300310ED
:1005CA00F10CF00CFF3E031DE42A0130F702031D73
:1005DA00CD2A7608F1007508F0000800F6007603C7
:1005EA00031D122B74087F3EF9007908F5000430C8
:1005FA000310F50CFF3E031DFD2A7508F700790864
:10060A000F39F80077080A128A11A8200A128A11EB
:10061A0078080A128A11A820080002307606031DFB
:10062A0008007408BF3EF9007908F5000430031089
:10063A00F50CFF3E031D1C2B7508F70079080F39CE
:10064A00F80077080A128A11A8200A128A11780873
:10065A000A128A11A82008006430F0000030F10064
:10066A007B08F3007A08F2000A128A11B7220A12EA
:10067A008A117008B5006430F0000030F1007B0880
:10068A00F3007A08F2000A128A1117220A128A1152
:10069A007008B7000A30F00037080A128A11D92008
:1006AA000A128A11B600023078067904031D5F2BFC
:1006BA003508080078037904031D6A2B0A30F00014
:1006CA0037080A128A11F820080078087904031DED
:1006DA00080036080800FB000A128A114D200A1287
:1006EA008A11D030F0000030F1000A128A115C2021
:1006FA000A128A117B08F900FA017908F0007A08CF
:10070A00F1000A128A115C200A128A110A128A114D
:10071A0057200A128A11D130F0000030F1000A1273
:10072A008A115C200A128A110030F000F1000A12C4
:10073A008A113B210A128A117008FC000A128A11D6
:10074A0052200A128A117C080A128A11C020FC005F
:10075A007C080800F00007307006031DB72B7030C4
:10076A0083168F0406307006031DC02B83160F08EC
:10077A008F3960388F0005307006031DC92B831628
:10078A000F088F3950388F0004307006031DD22BA2
:10079A0083160F088F3940388F0003307006031D07
:1007AA00DB2B83160F088F3930388F000230700622
:1007BA00031DE42B83160F088F3920388F0070032E
:1007CA00031DEC2B83160F088F3910388F00700821
:1007DA00031DF22B8F3083168F0583160F14080022
:1007EA00BA003808013EF40039080A128A11F322C5
:1007FA000A128A110030F800F900831203133A082A
:10080A00FC00FD017C08FA007D08FB000A128A112F
:10081A0031230A128A110A128A117C220A128A11B7
:10082A00B40034080A128A11B5210A128A1138084A
:10083A00F40039080A128A11F3220A128A110130C5
:10084A00F8000030F900831203133A08FC00FD0196
:10085A007C08FA007D08FB000A128A1131230A1269
:10086A008A110A128A117C220A128A11B3003308E9
:10087A000A128A11B521080000300A128A11902042
:10088A000A128A113430F500F130F400F40B4B2CC3
:10089A00F50B4B2C502C03300A128A11A8200A128D
:1008AA008A110D30F500FB30F400F40B5A2CF50BCD
:1008BA005A2C5F2C03300A128A11A8200A128A11B4
:1008CA001D30F5009130F400F40B692CF50B692CFE
:1008DA0003300A128A11A8200A128A1102300A1257
:1008EA008A11A8200A128A1102300A128A11A82033
:1008FA000A128A1108300A128A11A8200A128A11C9
:10090A0000300A128A11A8200A128A110C300A121F
:10091A008A11A8200A128A1100300A128A11A82004
:10092A000A128A1106300A128A11A8200800003019
:10093A00FC000030FB000030FA000030F9007308B8
:10094A007204710470040319F12CFD01FD0AF31BF2
:10095A00BC2C0130F8000310F00DF10DF20DF30D6F
:10096A00F80BB02C0130F8007808FD07AC2C0130E8
:10097A00F8000310F90DFA0DFB0DFC0DF80BBE2C57
:10098A0073087702031DD32C72087602031DD32C39
:10099A0071087502031DD32C70087402031CE42C21
:1009AA007008F4027108031C710FF5027208031C27
:1009BA00720FF6027308031C730FF70279140130E1
:1009CA000310F30CF20CF10CF00CFF3E031DE52CA6
:1009DA000130FD02031DBC2C7C08F3007B08F200E9
:1009EA007A08F1007908F00008000A128A114D20ED
:1009FA000A128A118130F0000030F1000A128A11BD
:100A0A005C200A128A110030F000F1000A128A11E1
:100A1A003B210A128A1170088312AC000A128A1149
:100A2A0052200A128A110530F40001300A128A1182
:100A3A00F3220A128A110030F800F9008312031314
:100A4A002C08FC00FD017C08FA007D08FB000A1254
:100A5A008A1131230A128A110A128A117C220A1275
:100A6A008A11B40034080A128A11B5210A128A11AD
:100A7A000430F40001300A128A11F3220A128A1190
:100A8A000130F8000030F900831203132C08FC002F
:100A9A00FD017C08FA007D08FB000A128A11312345
:100AAA000A128A110A128A117C22B30008000A1259
:100ABA008A114D200A128A119030F0000030F1009C
:100ACA000A128A115C200A128A113108F200F30113
:100ADA007208F0007308F1000A128A115C200A12E7
:100AEA008A112C08F200F3017208F0007308F10071
:100AFA000A128A115C200A128A112E08F200F301E6
:100B0A007208F0007308F1000A128A115C200A12B6
:100B1A008A113008F200F3017208F0007308F1003C
:100B2A000A128A115C200A128A112D08F200F301B6
:100B3A007208F0007308F1000A128A115C200A1286
:100B4A008A112F08F200F3017208F0007308F1000D
:100B5A000A128A115C200A128A110A128A11522078
:100B6A000A128A111A30F300F830F200F20BBB2D88
:100B7A00F30BBB2D0000080007300A128A11AF23BD
:100B8A000A128A110A128A1188210A128A110A1271
:100B9A008A1141240A128A110A128A1174200A122D
:100BAA008A110D30F40001300A128A11F3220A1256
:100BBA008A113A300A128A11B5210A128A110930A9
:100BCA00F40002300A128A11F3220A128A11123030
:100BDA000A128A1119210A128A11F401F40A02303E
:100BEA000A128A11F3220A128A110A300A128A1187
:100BFA0019210A128A11F401F40A01300A128A111F
:100C0A00F3220A128A1101300A128A1119210A12D0
:100C1A008A1183120313AB01B001AE01F201003055
:100C2A000A128A1149220A128A110A128A116021A9
:100C3A000A128A11F20100300A128A1149220A1292
:100C4A008A1100300A128A1170230A128A11831239
:100C5A00B0000E30B800B901B90A30080A128A1178
:100C6A00F5230A128A1101300A128A1170230A1214
:100C7A008A118312AE000B30B800B901B90A2E08E6
:100C8A000A128A11F5230A128A110A128A115C259C
:100C9A000A128A11831203138618892E2A08031945
:100CAA00682EAA010A128A114D200A128A11B0303E
:100CBA00F0000030F1000A128A115C200A128A112F
:100CCA000030F0007E2E2A08031D892EAA01AA0AE6
:100CDA000A128A114D200A128A11B030F00000302F
:100CEA00F1000A128A115C200A128A110130F000FE
:100CFA000030F1000A128A115C200A128A110A12C3
:100D0A008A1152200A128A118312061EEE2EE52F2C
:100D1A000A128A1160210A128A110A128A115C25A2
:100D2A000A128A110E3083120313B800B901B90AE4
:100D3A0030080A128A11F5230A128A110B30B800F8
:100D4A00B901B90A2E080A128A11F5230A128A1160
:100D5A00861BB82E2B08031DB72E0130C000400891
:100D6A00AB07B82EAB01061BD52E2B08031DC82EC8
:100D7A003B3030020318C62E0130C0004008B007CD
:100D8A00D52EB001D52E2B03031DD52E3B302E02B6
:100D9A000318D42E0130C0004008AE07D52EAE018C
:100DAA00861AEE2E2B08031DE32E30080319E02EB7
:100DBA000130B002EE2E3B30B000EE2E2B03031DA5
:100DCA00EE2E2E080319EC2E0130AE02EE2E3B3029
:100DDA00AE0086198D2EF20100300A128A114922BC
:100DEA000A128A110E308312B8000230B900300894
:100DFA000A128A11F5230A128A110B30B80002303E
:100E0A00B9002E080A128A11F5230A128A110A1247
:100E1A008A114D200A128A11B030F0000030F10018
:100E2A000A128A115C200A128A110030F000F100BD
:100E3A000A128A115C200A128A110A128A11522095
:100E4A000A128A118312AA01053083120313C200FF
:100E5A000F30C100F030C000C00B312FC10B312F51
:100E6A00C20B312F00000A128A114D200A128A1170
:100E7A00B030F0000030F1000A128A115C200A1228
:100E8A008A110230F0000030F1000A128A115C2047
:100E9A000A128A110A128A1152200A128A119E2FE4
:100EAA0000300A128A1170230A128A118312AF00C3
:100EBA0001300A128A1170230A128A118312AD00B4
:100ECA000E30B800B901B90A2F080A128A11F5239F
:100EDA000A128A110B30B800B901B90A2D080A1290
:100EEA008A11F5230A128A110A128A1160210A123A
:100EFA008A111A3083120313C100F730C000C00BE5
:100F0A00842FC10B842F892F0A128A115C250A1299
:100F1A008A111A3083120313C100F730C000C00BC4
:100F2A00942FC10B942F992F0A128A11FA240A12AC
:100F3A008A118312C301C30A30082F06031DAA2F80
:100F4A002E082D06031DAA2FC301060CC000C00CD3
:100F5A00400C01394305031D552FAF01AD010A129B
:100F6A008A114D200A128A11B030F0000030F100C7
:100F7A000A128A115C200A128A110330F00000302A
:100F8A00F1000A128A115C200A128A110A128A11C5
:100F9A0052200A128A110E308312B8000230B900A8
:100FAA0000300A128A11F5230A128A110B30B8008E
:100FBA000230B90000300A128A11F5230A128A1186
:100FCA00023083120313C2000430C100B930C000DA
:100FDA00C00BED2FC10BED2FC20BED2FF42F1A2EE4
:100FEA0083132030840035300A128A11632083016A
:060FFA000A128A11C12D4C
:08400000FF3FFF3FFF3FFF3FC0
:04400E00D420FF3F7C
:00000001FF
