:060000000A128A1110280B
:10000800FE00030E83120313DF000A08E0007F08D6
:10001800E1000A128A11452D0A128A111328831247
:100028000313E601E701E801E901EA01EB01EC014C
:10003800ED01EE01EF0183160313A001A101A20156
:10004800A301A401A501A601A70183010A128A152B
:10005800CF2F8312031323088039AD002308A8008B
:100068002807B300A21F39283A283B28331433083D
:1000780003193F2840284F28330A031D44284528E0
:100088004D280030A3000030A2000030A10000304D
:10009800A000A21757280030A3000030A2000030AB
:1000A800A1000030A00027088039A8002808AD0664
:1000B8002708A8002807B200A61F63286428652817
:1000C80032143208031969286A287928320A031D6C
:1000D8006E286F2877280030A7000030A60000306F
:1000E800A5000030A400A61781280030A700003022
:1000F800A6000030A5000030A400320803198528A6
:1001080086288B283308031D8A288B2894280030DA
:10011800A3000030A2000030A1000030A000712B25
:100128002008F00026080A128A11AA270A128A1142
:10013800710883120313B9007008B8003808A800C2
:10014800A901AA01AB012B08B1002A08B0002908AF
:10015800AF002808AE003908A800A901AA01AB0120
:100168002B08B7002A08B6002908B5002808B400EB
:100178002108F00025080A128A11AA270A128A11F2
:10018800710883120313B9007008B8003808A80072
:10019800A901AA01AB012808AE0729080311031811
:1001A800013E0319D828AF072A0803110318013E96
:1001B8000319DF28B0072B0803110318013E0319A0
:1001C800E628B1073908A800A901AA01AB01280847
:1001D800B407290803110318013E0319F428B507C9
:1001E8002A0803110318013E0319FB28B6072B0838
:1001F80003110318013E03190229B7072208F0006A
:1002080024080A128A11AA270A128A11710883126D
:100218000313B9007008B8003808A800A901AA019A
:10022800AB012808AE07290803110318013E03197A
:100238001E29AF072A0803110318013E03192529AF
:10024800B0072B0803110318013E03192C29B10725
:100258003908A800A901AA01AB012808B407290890
:1002680003110318013E03193A29B5072A08031197
:100278000318013E03194129B6072B080311031877
:10028800013E03194829B7070830A8000310AE0D2E
:10029800AF0DB00DB10DA80B4A292108F0002408B4
:1002A8000A128A11AA270A128A11710883120313E3
:1002B800B9007008B8003808A8003908A900AA01D0
:1002C800AB012808AE07290803110318013E0319DA
:1002D8006E29AF072A0803110318013E031975296F
:1002E800B0072B0803110318013E03197C29B10735
:1002F8002008F00025080A128A11AA270A128A1172
:10030800710883120313B9007008B8003808A800F0
:100318003908A900AA01AB012808AE07290803116A
:100328000318013E03199929AF072A080311031876
:10033800013E0319A029B0072B0803110318013E39
:100348000319A729B1070830A8000310AE0DAF0D97
:10035800B00DB10DA80BA9292008F00024080A1235
:100368008A11AA270A128A11710883120313B90085
:100378007008B8003808A8003908A900AA01AB011C
:100388002808AE07290803110318013E0319CD29CF
:10039800AF072A0803110318013E0319D429B0072F
:1003A8002B0803110318013E0319DB29B1072108A3
:1003B800F00026080A128A11AA270A128A1171085F
:1003C80083120313B9007008B8003808A800390868
:1003D800A900AA01AB012808B407290803110318CA
:1003E800013E0319F829B5072A0803110318013E2D
:1003F8000319FF29B6072B0803110318013E031937
:10040800062AB7072208F00025080A128A11AA2727
:100418000A128A11710883120313B9007008B80010
:100428003808A8003908A900AA01AB012808B407B0
:10043800290803110318013E0319232AB5072A08BE
:1004480003110318013E03192A2AB6072B080311C2
:100458000318013E0319312AB7072208F0002608BD
:100468000A128A11AA270A128A1171088312031321
:10047800B9007008B8003808A8003908A900AA010E
:10048800AB0108300310A80DA90DAA0DAB0DFF3E56
:10049800031D462A2808B407290803110318013E3A
:1004A8000319572AB5072A0803110318013E03192F
:1004B8005E2AB6072B0803110318013E0319652AA3
:1004C800B7072E08A8002F08A9003008AA0031088D
:1004D800AB0018300310AB0CAA0CA90CA80CFF3EFB
:1004E800031D6E2A2808B407290803110318013EC2
:1004F80003197F2AB5072A0803110318013E0319B7
:10050800862AB6072B0803110318013E03198D2A02
:10051800B7070830A8000310AE0DAF0DB00DB10D30
:10052800A80B8F2A33083207A800A901A90D2808AB
:10053800823EB80029080318013EFF3EB900C12ACF
:100548000130A8000310B40DB50DB60DB70DA80BFA
:10055800A62AB11FB02AB12AB22A34140130A80041
:100568000310AE0DAF0DB00DB10DA80BB42AFF30BE
:10057800B8070318B90AFF30B907B61FC42AC52A35
:10058800A42AB201B11FC92ACA2AE62AFF302E05B9
:10059800A800FF302F05A900FF303005AA007F30E2
:1005A8003105AB002B082A04290428040319DD2A85
:1005B800DE2AE12AB201B20AE62A341CE42AE52A34
:1005C800E62ADE2A32080319EA2AEB2A1C2B013014
:1005D800B407003003180130B507003003180130A4
:1005E800B607003003180130B707371CFC2AFD2A6C
:1005F8001C2B3408A8003508A9003608AA003708BB
:10060800AB000130AC002B0DAB0CAA0CA90CA80C4C
:10061800AC0B072B2B08B7002A08B6002908B50031
:100628002808B4000130B8070318B90A0030B90720
:100638003908803AFF0080307F02031D252BFF30E8
:100648003802031C282B292B342B7F3083120313E9
:10065800B7008030B6000030B5000030B400652B1C
:10066800831203133908803AFF0080307F02031D8C
:100678003F2B013038020318422B432B4F2B0030FD
:1006880083120313B7000030B6000030B500003005
:10069800B400AD01652B831203133808B300FF3093
:1006A800B405FF30B5057F30B6050030B705331CFB
:1006B8005E2B5F2B602BB6173308A8000310280C9D
:1006C800B7002D08A8002808B7043708A300360883
:1006D800A2003508A1003408A00008008312031303
:1006E80041088039CB004108C2004207D200C01F30
:1006F8007E2B7F2B802B521452080319842B852BB9
:10070800952B520A031D892B8A2B922B0030C1008E
:100718000030C0000030BF000030BE00C017C1016B
:100728009D2B0030C1000030C0000030BF000030F9
:10073800BE003D088039C2004208CB063D08C20011
:100748004207D300BC1FA92BAA2BAB2B5314530869
:100758000319AF2BB02BC02B530A031DB42BB52B99
:10076800BD2B0030BD000030BC000030BB000030A5
:10077800BA00BC17BD01C82B0030BD000030BC005A
:100788000030BB000030BA003D083C043B043A048A
:10079800031DCF2BD02BE92B0030C1000030C00047
:1007A8000030BF000030BE008030C0047F30C1047C
:1007B8004B08C2004208C1044108BD004008BC0003
:1007C8003F08BB003E08BA00442D5208031DED2B1C
:1007D800EE2BF72B0030BD000030BC000030BB0012
:1007E8000030BA00442D5208C200C3014308C500B6
:1007F80053084202C400031CC50344087F3ECC00D2
:1008080045080318013E003ECD004108CA004008D3
:10081800C9003F08C8003E08C7000030C1000030CA
:10082800C0000030BF000030BE000030D1000030F2
:10083800D0000030CF000030CE00D3016D2C53081B
:100848000319272C282C482C0130C2000310C70D8F
:10085800C80DC90DCA0DC20B2A2C0130C2000310E5
:10086800BE0DBF0DC00DC10DC20B332CD11F3D2CC9
:100878003E2C3F2C3E140130C2000310CE0DCF0D8C
:10088800D00DD10DC20B412C3D084A02031D562C38
:100898003C084902031D562C3B084802031D562CF0
:1008A8003A084702031C592C5A2C692C51173A084C
:1008B800C7023B08031C3B0FC8023C08031C3C0F43
:1008C800C9023D08031C3D0FCA020130C20042089C
:1008D800D3071A305302031C722C732C232C4A089A
:1008E80049044804470403197A2C7B2C9A2C4E148B
:1008F8009A2C0130C2000310BE0DBF0DC00DC10DF2
:10090800C20B7F2CD11F892C8A2C8B2C3E140130D2
:10091800C2000310CE0DCF0DD00DD10DC20B8D2C02
:10092800FF30CC070318CD0AFF30CD07C01F9D2C20
:100938009E2C7D2CD301D11FA22CA32CBF2CFF30C1
:100948004E05C200FF304F05C300FF305005C400FC
:100958007F305105C5004508440443044204031987
:10096800B62CB72CBA2CD301D30ABF2C3E1CBD2CF5
:10097800BE2CBF2CB72C53080319C32CC42CF52C40
:100988000130BE07003003180130BF0700300318DC
:100998000130C007003003180130C107411CD52CB5
:1009A800D62CF52C3E08C2003F08C3004008C400FE
:1009B8004108C5000130C600450DC50CC40CC30C68
:1009C800C20CC60BE02C4508C1004408C00043080F
:1009D800BF004208BE000130CC070318CD0A003022
:1009E800CD074D08803AFF0080307F02031DFE2CA2
:1009F800FF304C02031C012D022D102DFF308312F5
:100A08000313CC000030CD000030C1000030C0001E
:100A18000030BF000030BE00831203134D08803A37
:100A2800FF0080307F02031D1B2D01304C0203188C
:100A38001E2D1F2D2C2D83120313CC01CD01003048
:100A4800C1000030C0000030BF000030BE00CB0144
:100A5800831203134C08D200521C332D342D362D2B
:100A6800C0173A2D7F30C2004208C0055208C200A4
:100A78000310420CC1004B08C2004208C104E02B1D
:100A880008000C1C482D492DBC2D0C100B308F0074
:100A9800DC308E00E801E9016808F0006908F1001F
:100AA800F201F30100300A128A112B260A128A1168
:100AB800730883120313A7007208A6007108A50023
:100AC8007008A4003D30A300AA30A200A830A100FD
:100AD800EB30A0000A128A112D200A128A11831203
:100AE80003132308C1002208C0002108BF00200802
:100AF800BE003E30BD008030BC000030BB0000307E
:100B0800BA000A128A1172230A128A118312031375
:100B18003D08E5003C08E4003B08E3003A08E20031
:100B28006508A7006408A6006308A5006208A40079
:100B38004230A3007030A2000030A1000030A000B5
:100B48000A128A112D200A128A118312031323080C
:100B5800D7002208D6002108D5002008D4000A12A0
:100B68008A11E3260A128A11831203135408EC002F
:100B78000B1CBF2DC02DCA2D861FC32DC42DCA2DF9
:100B88000130E8070318E90A0030E9078C1DCD2D6C
:100B9800CE2D222E1412141BD22DD32DD72D941FF7
:100BA800D62DD72DDC2D1308EE001413941314162C
:100BB80083160313941AE12DE22DFE2D1419E52D49
:100BC800E62DFE2D831203131308EE008C11141664
:100BD80083160313141CF12DF22DEC2D831203132D
:100BE8001308EF00A53083120313DE00DE0BFA2D85
:100BF800FD2D1F2E941A012E022E1F2E141D052EB8
:100C0800062E1F2E831203131308EE0083160313F8
:100C18001410831203136C0893001416A530831262
:100C28000313DE00DE0B162E192E83160313141879
:100C38001E2E1F2E192E831203138C116108FF001C
:100C480060088A005F0E8300FE0E7E0E0900F80021
:100C580078080319302E312E452EF31F342E352EE9
:100C6800452E7009FA007109FB007209FC0073092E
:100C7800FD00FA0A0319FB0A0319FC0A0319FD0A05
:100C88004D2E7308FD007208FC007108FB00700807
:100C9800FA007308720471047004031D542E552E53
:100CA8005E2E0030F3000030F2000030F10000301A
:100CB800F000E22E9630F9006E2E0130F400740830
:100CC800F90701300310FD0CFC0CFB0CFA0CFF3E7D
:100CD800031D662EFE307D05031D732E742E612EB6
:100CE800902E0130F4007408F9070130FA0700303B
:100CF80003180130FB07003003180130FC070030EF
:100D080003180130FD0701300310FD0CFC0CFB0C2F
:100D1800FA0CFF3E031D882EFF307D05031D952E1E
:100D2800962E752EA22E0130F9020130F400031020
:100D3800FA0DFB0DFC0DFD0DF40B9B2EFC1BA52ED7
:100D4800A62EAC2E023079020318AB2EAC2E972EAD
:100D58007918AF2EB02EB82EFF30FA05FF30FB05FC
:100D68007F30FC05FF30FD050310F90C7908F4000D
:100D7800F501F601F70118300310F40DF50DF60D25
:100D8800F70DFF3E031DC02E7408FA047508FB0416
:100D98007608FC047708FD0478080319D42ED52EAC
:100DA800DA2EF31FD82ED92EDA2EFD177D08F30080
:100DB8007C08F2007B08F1007A08F00008000310B4
:100DC80083120313560D570DDD005D08031DED2E2C
:100DD800EE2EF72E0030D7000030D6000030D500B8
:100DE8000030D4005A2F5408D8005508D9005608A6
:100DF800DA005708DB001F300310DB0CDA0CD90CC3
:100E0800D80CFF3E031D002F5808DC00D617FF3012
:100E1800D405FF30D505FF30D6050030D70596300C
:100E2800DD02DD1F182F192F332F5D08803A973EFA
:100E380003181F2F202F212FEE2E01300310D70C5F
:100E4800D60CD50CD40CFF3E031D222F0130D80040
:100E58005808DD07031D312F322F212F4A2F20304C
:100E68005D02031C382F392F452FEE2E0130D80094
:100E78000310D40DD50DD60DD70DD80B3C2F01304E
:100E8800DD025D08031D492F4A2F3A2F5C0803191C
:100E98004E2F4F2F5A2FD409D509D609D709D40A6E
:100EA8000319D50A0319D60A0319D70A08008316A5
:100EB8000313A80007302806031D632F642F662F2D
:100EC80070308F0406302806031D6B2F6C2F702F8F
:100ED8000F088F3960388F0005302806031D752FDD
:100EE800762F7A2F0F088F3950388F000430280654
:100EF800031D7F2F802F842F0F088F3940388F00D4
:100F080003302806031D892F8A2F8E2F0F088F394B
:100F180030388F0002302806031D932F942F982F06
:100F28000F088F3920388F002803031D9C2F9D2F11
:100F3800A12F0F088F3910388F002808031DA52FFF
:100F4800A62FA82F8F308F050F140800F800F40182
:100F5800F5017008F200F3017208F6007308F70053
:100F6800781CB72FB82FBE2F7608F4070318F50A98
:100F78007708F50701300310F60DF70DFF3E031D46
:100F8800BF2F0310F80C7808031DCB2FCC2FB42FDC
:100F98007508F1007408F00008008316031788012B
:100FA800890183160313081705108312031385019B
:100FB80084308316031386008312031386018B176C
:100FC8008B150B1080308316031396008113803025
:0C0FD8000A128A15E6270A128A11080086
:101F760083120313901610169015101590108B17D8
:101F8600831603130C14831203130C1010140B3056
:101F96008F00DC308E00080007300A128A115B279A
:101FA6000A128A150A128A11D1270A128A150A12EA
:101FB6008A15BB270A128A1583120313EF01E22F33
:101FC6000A128A11102883160313A8002808930002
:101FD6003630831203139400803083160313940063
:101FE60001309100871507168B170B178312031301
:0A1FF6008C11831603138C150800EC
:08400000FF3FFF3FFF3FFF3FC0
:04400E00D420FF3F7C
:00000001FF
