:100000000A128A11F52F00308A000408840A820738
:10001000003454343A3420342034203420344334EF
:0E002000003453343A34203420343A3400345F
:100394000A128A11E821111408000A128A11E821AC
:1003A400111508000A128A11E821911408000A1292
:1003B4008A11E82170088312930008006400800108
:1003C400840A0406031900340406E129831603137E
:1003D4001419E82911081F3903190800E829003005
:1003E4000A128A1125220A128A1101300A128A116C
:1003F40025220800F300F201731C042A7008F1009E
:100404007108F2070310F00D0310F30C7308031DB9
:10041400FE2972080800F000701C132A83120816C3
:10042400152A83120812F01C192A88161A2A88120F
:10043400701D1E2A08171F2A0813F01D232A881767
:10044400080088130800F3008312031308117308CB
:100454000A128A110D220A128A1188150B30F20031
:100464006230F100F10B342AF20B342A00008312BB
:10047400031388110800F80078080F39F50078088C
:10048400F40004300310F40CFF3E031D442A7408E6
:100494000F39F6000A30F00076080A128A11FC219E
:1004A4007507F70077080800F3000830F400F50139
:1004B4007308F10007300310F10CFF3E031D5D2AA1
:1004C4007508F20072077104F5000310F30D70084B
:1004D4007502031C6F2A7008F5020130F402031D33
:1004E4005A2A75080800F200F40170080319942AC6
:1004F400F301F30AF01B852A0310F00D0130F1001B
:100504007108F3077C2A0310F40D70087202031CAF
:100514008F2A7008F20274140310F00C0130F302F5
:10052400031D852A74080800F700F501F601750813
:10053400770784000A128A1103200A128A11003AEA
:10054400031908007508770784000A128A1103202A
:100554000A128A110A128A110A230A128A11013014
:10056400F5070318F60A0030F607992A0A128A11C9
:10057400E8210A128A1191150A128A11E8210A1235
:100584008A1183121308F200F3017208F40073084D
:10059400F5000A128A11E8210A128A117003710403
:1005A400031DD62A9112D72A911611167508F10047
:1005B4007408F000080003178801890103138801F7
:1005C40083128801FE3083168600FE308312860073
:1005D400FE308316950081130B3083120313BD0084
:1005E4002630BC005D30BB00BB0BF62ABC0BF62AE0
:1005F400BD0BF62A003083120313B6000130B50098
:100604008630B400A030B3000A128A113B230800DC
:10061400F40074080F39F2007408F039F3008312FF
:10062400031308157308F10004300310F10CFF3EA6
:10063400031D172B71080A128A110D220A128A113E
:1006440088151A30F100F10B252B000083120313D7
:10065400881172080A128A110D220A128A11881549
:100664001A30F100F10B342B0000831203138811AC
:100674000800283094008316910183123308B700D0
:100684003408B8003508B9003608BA00023003103F
:10069400B70DB80DB90DBA0DFF3E031D492B3A082D
:1006A400F3003908F2003808F1003708F000003090
:1006B400F7007A30F6001230F5000030F4000A1228
:1006C4008A11A6257008FF3E8316930094018715AE
:1006D40007160800F5000A128A11CA210A128A11A3
:1006E400D030F0000030F1000A128A11D9210A1228
:1006F4008A110030F000F1000A128A11D9210A127D
:100704008A117508F300F4017308F0007408F1000D
:100714000A128A11D9210A128A117208F300F4010B
:100724007308F0007408F1000A128A11D9210A1220
:100734008A110A128A11CF2108006430F000780867
:100744000A128A1175220A128A11F9006430F00023
:1007540078080A128A1156220A128A11FB000A30FA
:10076400F0007B080A128A1156220A128A11FA0032
:10077400023076067704031DC12B7908080076033E
:100784007704031DCC2B0A30F0007B080A128A116F
:100794007522080076087704031D08007A0808000B
:1007A4000A128A11CA210A128A11A130F0000030FB
:1007B400F1000A128A11D9210A128A110030F000BC
:1007C400F1000A128A11B8220A128A1170088312DF
:1007D400B0000A128A11CF210A128A114E308312F4
:1007E4000313B500EA30B400B40BF62BB50BF62BAB
:1007F40000000430FC000230FD00831203133008B3
:100804000A128A1104250800F0007008031D0C2C3C
:10081400303008007003031D112C31300800023001
:100824007006031D172C3230080003307006031DB8
:100834001D2C3330080004307006031D232C343083
:10084400080005307006031D292C353008000630D9
:100854007006031D2F2C3630080007307006031D68
:10086400352C3730080008307006031D3B2C383017
:10087400080009307006031D080039300800F6002E
:100884007603031D602C74087F3EF9007908F50097
:1008940004300310F50CFF3E031D4B2C7508F700C4
:1008A40079080F39F80077080A128A1125220A12EA
:1008B4008A1178080A128A11252208000230760665
:1008C400031D08007408BF3EF9007908F5000430E0
:1008D4000310F50CFF3E031D6A2C7508F700790818
:1008E4000F39F80077080A128A1125220A128A1190
:1008F40078080A128A1125220800FB000A128A11BC
:10090400CA210A128A11D030F0000030F1000A1214
:100914008A11D9210A128A117B08F900FA0179088F
:10092400F0007A08F1000A128A11D9210A128A11F8
:100934000A128A11D4210A128A11D130F00000302F
:10094400F1000A128A11D9210A128A110030F0002A
:10095400F1000A128A11B8220A128A117008FC00E6
:100964000A128A11CF210A128A117C080A128A11EA
:100974003D22FC007C080800F00007307006031DCF
:10098400C62C703083168F0406307006031DCF2CDE
:1009940083160F088F3960388F0005307006031DE9
:1009A400D82C83160F088F3950388F000430700606
:1009B400031DE12C83160F088F3940388F00033054
:1009C4007006031DEA2C83160F088F3930388F0008
:1009D40002307006031DF32C83160F088F3920385C
:1009E4008F007003031DFB2C83160F088F391038FA
:1009F4008F007008031D012D8F3083168F05831619
:100A04000F1408008312B3007C08013EF4007D0833
:100A14000A128A1141240A128A110030F600F700E2
:100A2400831203133308F8000A128A119F230A124F
:100A34008A110A128A1106240A128A1183120313D4
:100A4400B20032080A128A110A230A128A117C0897
:100A5400F4007D080A128A1141240A128A11013015
:100A6400F6000030F700831203133308F8000A126B
:100A74008A119F230A128A110A128A1106240A1261
:100A84008A1183120313B10031080A128A110A234E
:100A9400080000300A128A110D220A128A11343019
:100AA400F500F130F400F40B552DF50B552D5A2DAE
:100AB40003300A128A1125220A128A110D30F50018
:100AC400FB30F400F40B642DF50B642D692D033019
:100AD4000A128A1125220A128A111D30F50091305A
:100AE400F400F40B732DF50B732D03300A128A11E5
:100AF40025220A128A1102300A128A1125220A12A8
:100B04008A1102300A128A1125220A128A11083027
:100B14000A128A1125220A128A1100300A128A1135
:100B240025220A128A110C300A128A1125220A126D
:100B34008A1100300A128A1125220A128A110630FB
:100B44000A128A11252208000030FC000030FB0044
:100B54000030FA000030F900730872047104700464
:100B64000319FB2DFD01FD0AF31BC62D0130F8000E
:100B74000310F00DF10DF20DF30DF80BBA2D013049
:100B8400F8007808FD07B62D0130F8000310F90DC0
:100B9400FA0DFB0DFC0DF80BC82D73087702031D2D
:100BA400DD2D72087602031DDD2D71087502031D0B
:100BB400DD2D70087402031CEE2D7008F402710818
:100BC400031C710FF5027208031C720FF6027308FE
:100BD400031C730FF702791401300310F30CF20CA9
:100BE400F10CF00CFF3E031DEF2D0130FD02031D3F
:100BF400C62D7C08F3007B08F2007A08F10079081E
:100C0400F000080007300A128A11BE240A128A1161
:100C14000A128A11DD220A128A110A128A114B253C
:100C24000A128A110A128A11F1210A128A110D304C
:100C3400F40001300A128A1141240A128A113A304E
:100C44000A128A110A230A128A110930F4000230A6
:100C54000A128A1141240A128A1109300A128A11CD
:100C640096220A128A11F401F40A02300A128A1135
:100C740041240A128A1101300A128A1196220A1298
:100C84008A1183120313AB01AF01AD01F2010030ED
:100C94000A128A116C230A128A110A128A11D223A7
:100CA4000A128A11F20100300A128A116C230A1204
:100CB4008A1100300A128A117F240A128A118312BF
:100CC400AF000E30FC00FD01FD0A2F080A128A1144
:100CD40004250A128A1101300A128A117F240A1289
:100CE4008A118312AD000B30FC00FD01FD0A2D08B2
:100CF4000A128A1104250A128A118618B72E2A08A4
:100D04000319962EAA010A128A11CA210A128A11FB
:100D1400B030F0000030F1000A128A11D9210A1211
:100D24008A110030F000AC2E2A08031DB72EAA0148
:100D3400AA0A0A128A11CA210A128A11B030F000D2
:100D44000030F1000A128A11D9210A128A110130E5
:100D5400F0000030F1000A128A11D9210A128A1116
:100D64000A128A11CF210A128A118312061E152F24
:100D74004F2E0A128A11D2230A128A110E30FC0055
:100D8400FD01FD0A2F080A128A1104250A128A118C
:100D94000B30FC00FD01FD0A2D080A128A110425FE
:100DA4000A128A11861BDF2E2B08031DDE2E01304A
:100DB400BE003E08AB07DF2EAB01061BFC2E2B0842
:100DC400031DEF2E3B302F020318ED2E0130BE0021
:100DD4003E08AF07FC2EAF01FC2E2B03031DFC2E97
:100DE4003B302D020318FB2E0130BE003E08AD0738
:100DF400FC2EAD01861A152F2B08031D0A2F2F0870
:100E04000319072F0130AF02152F3B30AF00152F08
:100E14002B03031D152F2D080319132F0130AD02C9
:100E2400152F3B30AD008619BB2EF20100300A129B
:100E34008A116C230A128A110E30FC000230FD0064
:100E440083122F080A128A1104250A128A110B3000
:100E5400FC000230FD002D080A128A1104250A1232
:100E64008A110A128A11CA210A128A11B030F000BA
:100E74000030F1000A128A11D9210A128A110030B5
:100E8400F000F1000A128A11D9210A128A110A12F9
:100E94008A11CF210A128A118312AA010630831201
:100EA4000313C0001330BF00AD30BE00BE0B582F7B
:100EB400BF0B582FC00B582F0A128A11CA210A12CD
:100EC4008A11B030F0000030F1000A128A11D921E1
:100ED4000A128A110230F0000030F1000A128A115D
:100EE400D9210A128A110A128A11CF210A128A11EF
:100EF400AF2F00300A128A117F240A128A1183123A
:100F0400AE0001300A128A117F240A128A11831258
:100F1400AC000E30FC00FD01FD0A2E080A128A11F5
:100F240004250A128A110B30FC00FD01FD0A2C086D
:100F34000A128A1104250A128A110A128A11D2236A
:100F44000A128A111A3083120313BF00F730BE004D
:100F5400BE0BAA2FBF0BAA2FAF2F83120313C101FD
:100F6400C10A2F082E06031DBC2F2D082C06031DB5
:100F7400BC2FC101060CBE00BE0C3E0C013941055C
:100F8400031D7B2F0A128A11CA210A128A11B0305A
:100F9400F0000030F1000A128A11D9210A128A11D4
:100FA4000330F0000030F1000A128A11D9210A122C
:100FB4008A110A128A11CF210A128A110E30FC00FA
:100FC4000230FD0000300A128A1104250A128A1127
:100FD4000B30FC000230FD0000300A128A11042597
:100FE4000A128A114F2E83132030840033300A12E0
:0C0FF4008A11E02183010A128A11042EE8
:08400000FF3FFF3FFF3FFF3FC0
:04400E00D420FF3F7C
:00000001FF
