:100000000A128A11F52F00308A000408840A820738
:10001000003454343A3420342034203420344334EF
:0E002000003453343A34203420343A3400345F
:100472000A128A115722111408000A128A115722ED
:10048200111508000A128A115722911408000A1243
:100492008A115722700883129300080064008001B9
:1004A200840A0406031900340406502A831603132F
:1004B2001419572A11081F3903190800572A003046
:1004C2000A128A1194220A128A1101300A128A111E
:1004D20094220800F300F201731C732A7008F100E1
:1004E2007108F2070310F00D0310F30C7308031DDB
:1004F2006D2A72080800F000701C822A8312081606
:10050200842A83120812F01C882A8816892A8812E3
:10051200701D8D2A08178E2A0813F01D922A88173B
:10052200080088130800F3008312031308117308EC
:100532000A128A117C220A128A1188150B30F200E3
:100542006230F100F10BA32AF20BA32A00008312FE
:10055200031388110800F80078080F39F5007808AD
:10056200F40004300310F40CFF3E031DB32A740898
:100572000F39F6000A30F00076080A128A116B224F
:100582007507F70077080800F3000830F400F5015A
:100592007308F10007300310F10CFF3E031DCC2A53
:1005A2007508F20072077104F5000310F30D70086C
:1005B2007502031CDE2A7008F5020130F402031DE5
:1005C200C92A75080800F200F40170080319032B08
:1005D200F301F30AF01BF42A0310F00D0130F100CD
:1005E2007108F307EB2A0310F40D70087202031C62
:1005F200FE2A7008F20274140310F00C0130F302A8
:10060200031DF42A74080800F700F501F6017508C5
:10061200770784000A128A1103200A128A11003A0B
:10062200031908007508770784000A128A1103204B
:100632000A128A110A128A116E230A128A110130D1
:10064200F5070318F60A0030F607082B031788018E
:1006520089010313850183128501831688018312A0
:100662008801FC3083168600FC3083128600FC3041
:1006720083169500811300308312BA000130B9004D
:100682008630B800A030B7000A128A119F230800F2
:100692000A128A1157220A128A1191150A128A1114
:1006A20057220A128A1183121308F200F301720808
:1006B200F4007308F5000A128A1157220A128A11ED
:1006C20070037104031D672B9112682B911611168A
:1006D2007508F1007408F0000800F40074080F397E
:1006E200F2007408F039F30083120313081573083B
:1006F200F10004300310F10CFF3E031D7B2B710847
:100702000A128A117C220A128A1188151A30F10003
:10071200F10B892B000083120313881172080A124D
:100722008A117C220A128A1188151A30F100F10B03
:10073200982B0000831203138811080028309400BC
:100742008316910183123708BB003808BC003908B0
:10075200BD003A08BE0002300310BB0DBC0DBD0D3A
:10076200BE0DFF3E031DAD2B3E08F3003D08F20017
:100772003C08F1003B08F0000030F7007A30F60048
:100782001230F5000030F4000A128A1108267008AF
:10079200FF3E831693009401871507160800F500A3
:1007A2000A128A1139220A128A11D030F00000305E
:1007B200F1000A128A1148220A128A110030F0004E
:1007C200F1000A128A1148220A128A117508F300EE
:1007D200F4017308F0007408F1000A128A11482229
:1007E2000A128A117208F300F4017308F000740807
:1007F200F1000A128A1148220A128A110A128A1177
:100802003E2208006430F00078080A128A11E422BD
:100812000A128A11F9006430F00078080A128A116B
:10082200C5220A128A11FB000A30F0007B080A1264
:100832008A11C5220A128A11FA000230760677045A
:10084200031D252C7908080076037704031D302C3C
:100852000A30F0007B080A128A11E42208007608A6
:100862007704031D08007A0808000A128A11392247
:100872000A128A111130F0000030F1000A128A11B6
:1008820048220A128A110030F000F1000A128A117D
:1008920049230A128A1170088312B4000030F00052
:1008A200F1000A128A1149230A128A11700883126E
:1008B200B3000A128A113E220A128A110430FC0085
:1008C2000230FD00831234080A128A112125080021
:1008D200F0007008031D6F2C303008007003031DF8
:1008E200742C3130080002307006031D7A2C32302D
:1008F200080003307006031D802C333008000430DA
:100902007006031D862C3430080005307006031D66
:100912008C2C3530080006307006031D922C3630C0
:10092200080007307006031D982C37300800083085
:100932007006031D9E2C3830080009307006031D16
:10094200080039300800F6007603031DC32C740832
:100952007F3EF9007908F50004300310F50CFF3EE4
:10096200031DAE2C7508F70079080F39F8007708D7
:100972000A128A1194220A128A1178080A128A111A
:100982009422080002307606031D08007408BF3E58
:10099200F9007908F50004300310F50CFF3E031D41
:1009A200CD2C7508F70079080F39F80077080A127C
:1009B2008A1194220A128A1178080A128A11942240
:1009C2000800FB000A128A1139220A128A11D03059
:1009D200F0000030F1000A128A1148220A128A112C
:1009E2007B08F900FA017908F0007A08F1000A128E
:1009F2008A1148220A128A110A128A1143220A1201
:100A02008A11D130F0000030F1000A128A11482216
:100A12000A128A110030F000F1000A128A114923E9
:100A22000A128A117008FC000A128A113E220A1266
:100A32008A117C080A128A11AC22FC007C08080088
:100A4200B7007C08013EF4007D080A128A11A42432
:100A52000A128A110030F600F700831203133708D6
:100A6200F8000A128A1103240A128A110A128A1140
:100A720069240A128A1183120313B60036080A1275
:100A82008A116E230A128A117C08F4007D080A1268
:100A92008A11A4240A128A110130F6000030F700EC
:100AA200831203133708F8000A128A1103240A1268
:100AB2008A110A128A1169240A128A1183120313F3
:100AC200B50035080A128A116E230800F0000730BB
:100AD2007006031D6F2D703083168F04063070066A
:100AE200031D782D83160F088F3960388F0005306B
:100AF2007006031D812D83160F088F3950388F0021
:100B020004307006031D8A2D83160F088F39403872
:100B12008F0003307006031D932D83160F088F3943
:100B220030388F0002307006031D9C2D83160F088B
:100B32008F3920388F007003031DA42D83160F08F0
:100B42008F3910388F007008031DAA2D8F3083163D
:100B52008F0583160F14080000300A128A117C22B6
:100B62000A128A113430F500F130F400F40BB72D7B
:100B7200F50BB72DBC2D03300A128A1194220A12EA
:100B82008A110D30F500FB30F400F40BC62DF50B85
:100B9200C62DCB2D03300A128A1194220A128A1111
:100BA2001D30F5009130F400F40BD52DF50BD52D49
:100BB20003300A128A1194220A128A1102300A128E
:100BC2008A1194220A128A1102300A128A1194227C
:100BD2000A128A1108300A128A1194220A128A1100
:100BE20000300A128A1194220A128A110C300A1257
:100BF2008A1194220A128A1100300A128A1194224E
:100C02000A128A1106300A128A1194220800003050
:100C1200FC000030FB000030FA000030F9007308DD
:100C220072047104700403195D2EFD01FD0AF31BA9
:100C3200282E0130F8000310F00DF10DF20DF30D26
:100C4200F80B1C2E0130F8007808FD07182E013031
:100C5200F8000310F90DFA0DFB0DFC0DF80B2A2E0E
:100C620073087702031D3F2E72087602031D3F2E82
:100C720071087502031D3F2E70087402031C502E6A
:100C82007008F4027108031C710FF5027208031C4C
:100C9200720FF6027308031C730FF7027914013006
:100CA2000310F30CF20CF10CF00CFF3E031D512E5D
:100CB2000130FD02031D282E7C08F3007B08F200A0
:100CC2007A08F1007908F000080007300A128A1148
:100CD20067250A128A110A128A1127230A128A1117
:100CE2000A128A11AD250A128A110A128A11602289
:100CF2000A128A110D30F40001300A128A11A4245A
:100D02000A128A113A300A128A116E230A128A11C1
:100D12000930F40002300A128A11A4240A128A113C
:100D220009300A128A1105230A128A11F401F40AFF
:100D320002300A128A11A4240A128A1101300A12FC
:100D42008A1105230A128A1183120313AE01B2011A
:100D5200B001F20100300A128A11D0230A128A115C
:100D620083122E0885000A128A1136240A128A1169
:100D7200343083120313C000F130BF00BF0BBF2E0B
:100D8200C00BBF2EF20100300A128A11D0230A12C0
:100D92008A1100300A128A11E2240A128A1183127D
:100DA200B2000E30FC00FD01FD0A32080A128A115F
:100DB20021250A128A1101300A128A11E2240A122A
:100DC2008A118312B0000B30FC00FD01FD0A3008CD
:100DD2000A128A1121250A128A11061AB12E3430FA
:100DE20083120313C000F130BF00BF0BF62EC00BFD
:100DF200F62E83120313861D882F4E30831203139F
:100E0200C000EA30BF00BF0B042FC00B042F00004C
:100E12000A128A1136240A128A110E30FC00FD01D0
:100E2200FD0A32080A128A1121250A128A110B3090
:100E3200FC00FD01FD0A30080A128A1121250A125E
:100E42008A11861B392F343083120313C000F1300C
:100E5200BF00BF0B2A2FC00B2A2F831203132E08A9
:100E6200031D382F0130BF003F08AE07392FAE01F6
:100E7200061B622F823083120313C000DD30BF00D5
:100E8200BF0B412FC00B412F831203132E08031DEA
:100E9200552F3B3032020318532F0130BF003F0859
:100EA200B207622FB201622F2E03031D622F3B3065
:100EB20030020318612F0130BF003F08B007622FD4
:100EC200B001861AFA2E823083120313C000DD307D
:100ED200BF00BF0B6A2FC00B6A2F831203132E08A9
:100EE200031D7C2F32080319792F0130B202FA2E2A
:100EF2003B30B200FA2E2E03031DFA2E30080319DE
:100F0200852F0130B002FA2E3B30B000FA2EF201EA
:100F120000300A128A11D0230A128A110E30FC0004
:100F22000230FD00831232080A128A1121250A12A8
:100F32008A110B30FC000230FD0030080A128A11BF
:100F420021250A128A11CE2F00300A128A11E224B8
:100F52000A128A118312B10001300A128A11E224A4
:100F62000A128A118312AF000E30FC00FD01FD0A45
:100F720031080A128A1121250A128A110B30FC004B
:100F8200FD01FD0A2F080A128A1121250A128A116F
:100F92000A128A1136240A128A11C101C10A3208C0
:100FA2003106031DD92F30082F06031DD92FC10189
:100FB200060CBF003F0C01394105031DA52F0E3061
:100FC200FC000230FD0000300A128A1121250A12AB
:100FD2008A110B30FC000230FD0000300A128A1127
:100FE20021250A128A11B12E831320308400373052
:0E0FF2000A128A114F2283010A128A11662EFA
:08400000FF3FFF3FFF3FFF3FC0
:04400E00D420FF3F7C
:00000001FF
