:100000000A128A11F52F00308A000408840A820738
:10001000003454343A3420342034203420344334EF
:0E002000003453343A34203420343A3400345F
:1004B6000A128A117122111408000A128A11712275
:1004C600111508000A128A117122911408000A12E5
:1004D6008A1171227008831293000800831614197A
:1004E600712A11081F3903190800712A6400800156
:1004F600840A04060319003404067A2A00300A1214
:100506008A11B5220A128A1101300A128A11B522FD
:100516000800F300F201731C942A7008F1007108B8
:10052600F2070310F00D0310F30C7308031D8E2A57
:1005360072080800F000701CA32A83120816A52A68
:1005460083120812F01CA92A8816AA2A8812701D7E
:10055600AE2A0817AF2A0813F01DB32A8817080019
:1005660088130800F30083120313081173080A1294
:100576008A119D220A128A1188150B30F200623008
:10058600F100F10BC42AF20BC42A000083120313F4
:1005960088110800F80078080F39F5007808F4008B
:1005A60004300310F40CFF3E031DD42A74080F39DF
:1005B600F6000A30F00076080A128A118C227507B6
:1005C600F70077080800F3000830F400F501730817
:1005D600F10007300310F10CFF3E031DED2A7508EC
:1005E600F20072077104F5000310F30D700875022E
:1005F600031CFF2A7008F5020130F402031DEA2AE3
:1006060075080800F200F40170080319242BF301A1
:10061600F30AF01B152B0310F00D0130F1007108E1
:10062600F3070C2B0310F40D70087202031C1F2B2A
:100636007008F20274140310F00C0130F302031D6B
:10064600152B74080800F700F501F6017508770701
:1006560084000A128A1103200A128A11003A031929
:1006660008007508770784000A128A1103200A1207
:100676008A110A128A119A230A128A110130F50781
:100686000318F60A0030F607292B0A128A1171227E
:100696000A128A1191150A128A1171220A128A11F6
:1006A60083121308F200F3017208F4007308F500D0
:1006B6000A128A1171220A128A1170037104031D2B
:1006C600662B9112672B911611167508F1007408A6
:1006D600F0000800031788018901031388018312BB
:1006E6008801FE3083168600FE3083128600FE30B7
:1006F6008316950081130B3083120313BD00263039
:10070600BC005D30BB00BB0B862BBC0B862BBD0B28
:10071600862B003083120313B6000130B5008630F5
:10072600B400A030B3000A128A11CB230800F400EB
:1007360074080F39F2007408F039F30083120313BA
:1007460008157308F10004300310F10CFF3E031D79
:10075600A72B71080A128A119D220A128A1188157E
:100766001A30F100F10BB52B000083120313881128
:1007760072080A128A119D220A128A1188151A30E5
:10078600F100F10BC42B000083120313881108003B
:10079600283094008316910183123308B700340879
:1007A600B8003508B9003608BA0002300310B70D94
:1007B600B80DB90DBA0DFF3E031DD92B3A08F3004B
:1007C6003908F2003808F1003708F0000030F70069
:1007D6007A30F6001230F5000030F4000A128A1161
:1007E60035267008FF3E8316930094018715071679
:1007F6000800F5000A128A115B220A128A11D0300B
:10080600F0000030F1000A128A116A220A128A11D7
:100816000030F000F1000A128A116A220A128A11C7
:100826007508F300F4017308F0007408F1000A1269
:100836008A116A220A128A117208F300F4017308F7
:10084600F0007408F1000A128A116A220A128A114B
:100856000A128A11602208006430F00078080A1231
:100866008A1105230A128A11F9006430F00078080B
:100876000A128A11E6220A128A11FB000A30F000D7
:100886007B080A128A11E6220A128A11FA0002303D
:1008960076067704031D512C790808007603770441
:1008A600031D5C2C0A30F0007B080A128A1105230E
:1008B600080076087704031D08007A0808000A1263
:1008C6008A115B220A128A11A130F0000030F10071
:1008D6000A128A116A220A128A110030F000F10007
:1008E6000A128A1148230A128A1170088312B0006C
:1008F6000A128A1160220A128A114E3083120313D9
:10090600B500EA30B400B40B862CB50B862C00007B
:100916000430FC000230FD008312031330080A1273
:100926008A114E250800F0007008031D9C2C3030FB
:1009360008007003031DA12C313008000230700638
:10094600031DA72C3230080003307006031DAD2CA2
:100956003330080004307006031DB32C3430080011
:1009660005307006031DB92C3530080006307006B8
:10097600031DBF2C3630080007307006031DC52C3A
:100986003730080008307006031DCB2C38300800BD
:1009960009307006031D080039300800F60076039A
:1009A600031DF02C74087F3EF9007908F500043029
:1009B6000310F50CFF3E031DDB2C7508F7007908C4
:1009C6000F39F80077080A128A11B5220A128A111D
:1009D60078080A128A11B522080002307606031D2D
:1009E60008007408BF3EF9007908F50004300310CA
:1009F600F50CFF3E031DFA2C7508F70079080F3930
:100A0600F80077080A128A11B5220A128A117808A4
:100A16000A128A11B5220800FB000A128A115B220B
:100A26000A128A11D030F0000030F1000A128A1141
:100A36006A220A128A117B08F900FA017908F00085
:100A46007A08F1000A128A116A220A128A110A1217
:100A56008A1165220A128A11D130F0000030F100A5
:100A66000A128A116A220A128A110030F000F10075
:100A76000A128A1148230A128A117008FC000A1207
:100A86008A1160220A128A117C080A128A11CD2262
:100A9600FC007C080800B3007C08013EF4007D08D9
:100AA6000A128A11D1240A128A110030F600F700C0
:100AB600831203133308F8000A128A112F240A122C
:100AC6008A110A128A1196240A128A1183120313B2
:100AD600B20032080A128A119A230A128A117C0875
:100AE600F4007D080A128A11D1240A128A110130F3
:100AF600F6000030F700831203133308F8000A12D9
:100B06008A112F240A128A110A128A1196240A12AD
:100B16008A1183120313B10031080A128A119A232B
:100B26000800F00007307006031D9C2D70308316F8
:100B36008F0406307006031DA52D83160F088F3906
:100B460060388F0005307006031DAE2D83160F0822
:100B56008F3950388F0004307006031DB72D831669
:100B66000F088F3940388F0003307006031DC02DE3
:100B760083160F088F3930388F0002307006031D38
:100B8600C92D83160F088F3920388F007003031D77
:100B9600D12D83160F088F3910388F007008031D6A
:100BA600D72D8F3083168F0583160F14080000305B
:100BB6000A128A119D220A128A113430F500F13088
:100BC600F400F40BE42DF50BE42DE92D03300A12A5
:100BD6008A11B5220A128A110D30F500FB30F40095
:100BE600F40BF32DF50BF32DF82D03300A128A11B1
:100BF600B5220A128A111D30F5009130F400F40B6B
:100C0600022EF50B022E03300A128A11B5220A12A1
:100C16008A1102300A128A11B5220A128A1102308A
:100C26000A128A11B5220A128A1108300A128A118A
:100C3600B5220A128A1100300A128A11B5220A1246
:100C46008A110C300A128A11B5220A128A11003052
:100C56000A128A11B5220A128A1106300A128A115C
:100C6600B52208000030FC000030FB000030FA001E
:100C76000030F900730872047104700403198A2E97
:100C8600FD01FD0AF31B552E0130F8000310F00D8F
:100C9600F10DF20DF30DF80B492E0130F80078082E
:100CA600FD07452E0130F8000310F90DFA0DFB0D76
:100CB600FC0DF80B572E73087702031D6C2E720875
:100CC6007602031D6C2E71087502031D6C2E7008CA
:100CD6007402031C7D2E7008F4027108031C710F48
:100CE600F5027208031C720FF6027308031C730FD9
:100CF600F702791401300310F30CF20CF10CF00C2E
:100D0600FF3E031D7E2E0130FD02031D552E7C087D
:100D1600F3007B08F2007A08F1007908F000080079
:100D260007300A128A1194250A128A110A128A11A8
:100D36006D230A128A110A128A11DA250A128A11F9
:100D46000A128A1181220A128A110D30F40001302A
:100D56000A128A11D1240A128A113A300A128A1109
:100D66009A230A128A110930F40002300A128A11F3
:100D7600D1240A128A1109300A128A1126230A126C
:100D86008A11F401F40A02300A128A11D1240A12D5
:100D96008A1101300A128A1126230A128A11831235
:100DA6000313AB01AF01AD01F20100300A128A1143
:100DB600FC230A128A110A128A1162240A128A1163
:100DC600F20100300A128A11FC230A128A1100303D
:100DD6000A128A110F250A128A118312AF000E30E9
:100DE600FC00FD01FD0A2F080A128A114E250A127F
:100DF6008A1101300A128A110F250A128A118312EA
:100E0600AD000B30FC00FD01FD0A2D080A128A1107
:100E16004E250A128A1186181C2F861C102F2A08A6
:100E26000319172FAA011C2F2A08031D1C2FAA011C
:100E3600AA0A061E792FDE2E0A128A1162240A12C7
:100E46008A110E30FC00FD01FD0A2F080A128A11D4
:100E56004E250A128A110B30FC00FD01FD0A2D08F1
:100E66000A128A114E250A128A11861B432F2B0855
:100E7600031D422F0130BE003E08AB07432FAB01D6
:100E8600061B602F2B08031D532F3B302F02031820
:100E9600512F0130BE003E08AF07602FAF01602F13
:100EA6002B03031D602F3B302D0203185F2F0130EB
:100EB600BE003E08AD07602FAD01861A792F2B08BC
:100EC600031D6E2F2F0803196B2F0130AF02792FE8
:100ED6003B30AF00792F2B03031D792F2D08031903
:100EE600772F0130AD02792F3B30AD0086191F2FC9
:100EF600F20100300A128A11FC230A128A110E30FE
:100F0600FC000230FD0083122F080A128A114E25BA
:100F16000A128A110B30FC000230FD002D080A125D
:100F26008A114E250A128A11CC2F00300A128A1114
:100F36000F250A128A118312AE0001300A128A1195
:100F46000F250A128A118312AC000E30FC00FD0137
:100F5600FD0A2E080A128A114E250A128A110B3032
:100F6600FC00FD01FD0A2C080A128A114E250A1200
:100F76008A110A128A1162240A128A111A308312FD
:100F86000313BF00F730BE00BE0BC72FBF0BC72F22
:100F9600CC2F83120313C001C00A2F082E06031D8F
:100FA600D92F2D082C06031DD92FC001060CBE0013
:100FB6003E0C01394005031D982F0E30FC0002300F
:100FC600FD0000300A128A114E250A128A110B30D2
:100FD600FC000230FD0000300A128A114E250A126A
:100FE6008A11DE2E83132030840033300A128A11D0
:0A0FF600792283010A128A11932E5A
:08400000FF3FFF3FFF3FFF3FC0
:04400E00D420FF3F7C
:00000001FF
