:100000000A128A11F52F00308A000408840A820738
:10001000003454343A3420342034203420344334EF
:0E002000003453343A34203420343A3400345F
:1002BC000A128A117C21111408000A128A117C215D
:1002CC00111508000A128A117C21911408000A12D7
:1002DC008A117C217008831293000800640080014D
:1002EC00840A0406031900340406752983160313C3
:1002FC0014197C2911081F39031908007C290030B6
:10030C000A128A11B9210A128A1101300A128A11B1
:10031C00B9210800F300F201731C98297008F10050
:10032C007108F2070310F00D0310F30C7308031D92
:10033C00922972080800F000701CA7298312081675
:10034C00A92983120812F01CAD298816AE2988122F
:10035C00701DB2290817B3290813F01DB729881787
:10036C00080088130800F3008312031308117308A4
:10037C000A128A11A1210A128A1188150B30F20077
:10038C006230F100F10BC829F20BC829000083126E
:10039C00031388110800F80078080F39F500780865
:1003AC00F40004300310F40CFF3E031DD82974082C
:1003BC000F39F6000A30F00076080A128A119021E3
:1003CC007507F70077080800F3000830F400F50112
:1003DC007308F10007300310F10CFF3E031DF129E7
:1003EC007508F20072077104F5000310F30D700824
:1003FC007502031C032A7008F5020130F402031D78
:10040C00EE2975080800F200F40170080319282A77
:10041C00F301F30AF01B192A0310F00D0130F1005F
:10042C007108F307102A0310F40D70087202031CF4
:10043C00232A7008F20274140310F00C0130F3023A
:10044C00031D192A74080800F700F501F601750858
:10045C00770784000A128A1103200A128A11003AC3
:10046C00031908007508770784000A128A11032003
:10047C000A128A110A128A11C6220A128A11013032
:10048C00F5070318F60A0030F6072D2A0A128A110E
:10049C007C210A128A1191150A128A117C210A12E6
:1004AC008A1183121308F200F3017208F400730826
:1004BC00F5000A128A117C210A128A117003710448
:1004CC00031D6A2A91126B2A911611167508F100F8
:1004DC007408F00008000A128A115E210A128A11AF
:1004EC00A130F0000030F1000A128A116D210A12BD
:1004FC008A110030F000F1000A128A114C220A1203
:10050C008A1170088312B0000A128A1163210A1230
:10051C008A110430FC000230FD00831230080A12EC
:10052C008A118C24080003178801890103138801A0
:10053C0083128801FE3083168600FE3083128600FB
:10054C00FE308316950081130B3083120313BD000C
:10055C002630BC005D30BB00BB0BB22ABC0BB22AF0
:10056C00BD0BB22A003083120313B6000130B50064
:10057C008630B400A030B3000A128A11F7220800AA
:10058C00F40074080F39F2007408F039F300831288
:10059C00031308157308F10004300310F10CFF3E2F
:1005AC00031DD32A71080A128A11A1210A128A1179
:1005BC0088151A30F100F10BE12A000083120313A5
:1005CC00881172080A128A11A1210A128A1188153F
:1005DC001A30F100F10BF02A00008312031388117A
:1005EC000800283094008316910183123308B70059
:1005FC003408B8003508B9003608BA0002300310C8
:10060C00B70DB80DB90DBA0DFF3E031D052B3A08F9
:10061C00F3003908F2003808F1003708F000003018
:10062C00F7007A30F6001230F5000030F4000A12B0
:10063C008A112E257008FF3E8316930094018715AE
:10064C0007160800F5000A128A115E210A128A1197
:10065C00D030F0000030F1000A128A116D210A121C
:10066C008A110030F000F1000A128A116D210A1271
:10067C008A117508F300F4017308F0007408F10096
:10068C000A128A116D210A128A117208F300F40100
:10069C007308F0007408F1000A128A116D210A1215
:1006AC008A110A128A11632108006430F00078085C
:1006BC000A128A1109220A128A11F9006430F00018
:1006CC0078080A128A11EA210A128A11FB000A30F0
:1006DC00F0007B080A128A11EA210A128A11FA0028
:1006EC00023076067704031D7D2B7908080076030B
:1006FC007704031D882B0A30F0007B080A128A113C
:10070C000922080076087704031D08007A080800FF
:10071C00F0007008031D942B303008007003031D8B
:10072C00992B3130080002307006031D9F2B32309C
:10073C00080003307006031DA52B3330080004306D
:10074C007006031DAB2B3430080005307006031DFA
:10075C00B12B3530080006307006031DB72B363030
:10076C00080007307006031DBD2B37300800083019
:10077C007006031DC32B3830080009307006031DAA
:10078C00080039300800F6007603031DE82B7408C6
:10079C007F3EF9007908F50004300310F50CFF3E9C
:1007AC00031DD32B7508F70079080F39F80077086B
:1007BC000A128A11B9210A128A1178080A128A11AE
:1007CC00B921080002307606031D08007408BF3EEC
:1007DC00F9007908F50004300310F50CFF3E031DF9
:1007EC00F22B7508F70079080F39F80077080A1210
:1007FC008A11B9210A128A1178080A128A11B921B0
:10080C000800FB000A128A115E210A128A11D030EC
:10081C00F0000030F1000A128A116D210A128A11BF
:10082C007B08F900FA017908F0007A08F1000A1245
:10083C008A116D210A128A110A128A1168210A1270
:10084C008A11D130F0000030F1000A128A116D21AA
:10085C000A128A110030F000F1000A128A114C229F
:10086C000A128A117008FC000A128A1163210A12FA
:10087C008A117C080A128A11D121FC007C0808001C
:10088C00F00007307006031D4E2C703083168F0459
:10089C0006307006031D572C83160F088F396038ED
:1008AC008F0005307006031D602C83160F088F39DE
:1008BC0050388F0004307006031D692C83160F0806
:1008CC008F3940388F0003307006031D722C83164D
:1008DC000F088F3930388F0002307006031D7B2CC7
:1008EC0083160F088F3920388F007003031D832C5B
:1008FC0083160F088F3910388F007008031D892C50
:10090C008F3083168F0583160F1408008312B300E3
:10091C007C08013EF4007D080A128A11C9230A12D0
:10092C008A110030F600F700831203133308F80025
:10093C000A128A115B230A128A110A128A118E2357
:10094C000A128A1183120313B20032080A128A1196
:10095C00C6220A128A117C08F4007D080A128A1138
:10096C00C9230A128A110130F6000030F7008312F5
:10097C0003133308F8000A128A115B230A128A1136
:10098C000A128A118E230A128A1183120313B100E0
:10099C0031080A128A11C622080000300A128A1184
:1009AC00A1210A128A113430F500F130F400F40B55
:1009BC00DD2CF50BDD2CE22C03300A128A11B92147
:1009CC000A128A110D30F500FB30F400F40BEC2CFC
:1009DC00F50BEC2CF12C03300A128A11B9210A12F6
:1009EC008A111D30F5009130F400F40BFB2CF50B43
:1009FC00FB2C03300A128A11B9210A128A11023017
:100A0C000A128A11B9210A128A1102300A128A11A9
:100A1C00B9210A128A1108300A128A11B9210A1254
:100A2C008A1100300A128A11B9210A128A110C306B
:100A3C000A128A11B9210A128A1100300A128A117B
:100A4C00B9210A128A1106300A128A11B92108003A
:100A5C000030FC000030FB000030FA000030F900E0
:100A6C0073087204710470040319832DFD01FD0ACF
:100A7C00F31B4E2D0130F8000310F00DF10DF20DAB
:100A8C00F30DF80B422D0130F8007808FD073E2DD0
:100A9C000130F8000310F90DFA0DFB0DFC0DF80BED
:100AAC00502D73087702031D652D72087602031D05
:100ABC00652D71087502031D652D70087402031CE9
:100ACC00762D7008F4027108031C710FF502720880
:100ADC00031C720FF6027308031C730FF7027914D0
:100AEC0001300310F30CF20CF10CF00CFF3E031D63
:100AFC00772D0130FD02031D4E2D7C08F3007B0881
:100B0C00F2007A08F1007908F00008000A128A1144
:100B1C005E210A128A119030F0000030F1000A12A6
:100B2C008A116D210A128A113008F200F301720841
:100B3C00F0007308F1000A128A116D210A128A1151
:100B4C000A30F0000030F1000A128A116D210A12ED
:100B5C008A112D08F200F3017208F0007308F100FD
:100B6C000A128A116D210A128A112F08F200F30160
:100B7C007208F0007308F1000A128A116D210A1232
:100B8C008A112C08F200F3017208F0007308F100CE
:100B9C000A128A116D210A128A112E08F200F30131
:100BAC007208F0007308F1000A128A116D210A1202
:100BBC008A110A128A1163210A128A111A30F3005F
:100BCC00F830F200F20BE82DF30BE82D00000800D2
:100BDC0007300A128A1146240A128A110A128A1143
:100BEC0099220A128A110A128A11D3240A128A1122
:100BFC000A128A1185210A128A110D30F400013073
:100C0C000A128A11C9230A128A113A300A128A115D
:100C1C00C6220A128A110930F40002300A128A1113
:100C2C00C9230A128A1109300A128A112A220A12BD
:100C3C008A11F401F40A02300A128A11C9230A1229
:100C4C008A1101300A128A112A220A128A1183127D
:100C5C000313AB01AF01AD01F20100300A128A118E
:100C6C0028230A128A110A128A1171220A128A1175
:100C7C00F20100300A128A1128230A128A1100305C
:100C8C000A128A1107240A128A118312AF000E303D
:100C9C00FC00FD01FD0A2F080A128A118C240A128D
:100CAC008A1101300A128A1107240A128A1183123E
:100CBC00AD000B30FC00FD01FD0A2D080A128A1153
:100CCC008C240A128A110A128A118C250A128A1192
:100CDC00831203138618A82E2A080319872EAA013B
:100CEC000A128A115E210A128A11B030F00000300B
:100CFC00F1000A128A116D210A128A110030F000DB
:100D0C009D2E2A08031DA82EAA01AA0A0A128A11CE
:100D1C005E210A128A11B030F0000030F1000A1284
:100D2C008A116D210A128A110130F0000030F10095
:100D3C000A128A116D210A128A110A128A11632170
:100D4C000A128A118312061E0D2F392E0A128A11CD
:100D5C0071220A128A110A128A118C250A128A111E
:100D6C000E30FC00FD01FD0A831203132F080A123A
:100D7C008A118C240A128A110B30FC00FD01FD0A29
:100D8C002D080A128A118C240A128A11861BD72E5E
:100D9C002B08031DD62E0130BE003E08AB07D72E04
:100DAC00AB01061BF42E2B08031DE72E3B302F0244
:100DBC000318E52E0130BE003E08AF07F42EAF013C
:100DCC00F42E2B03031DF42E3B302D020318F32EAF
:100DDC000130BE003E08AD07F42EAD01861A0D2F72
:100DEC002B08031D022F2F080319FF2E0130AF0211
:100DFC000D2F3B30AF000D2F2B03031D0D2F2D0896
:100E0C0003190B2F0130AD020D2F3B30AD008619AD
:100E1C00AC2EF20100300A128A1128230A128A1110
:100E2C000E30FC000230FD0083122F080A128A11CA
:100E3C008C240A128A110B30FC000230FD002D08A4
:100E4C000A128A118C240A128A110A128A115E2142
:100E5C000A128A11B030F0000030F1000A128A1127
:100E6C006D210A128A110030F000F1000A128A1169
:100E7C006D210A128A110A128A1163210A128A112F
:100E8C008312AA01053083120313C0000F30BF0078
:100E9C00F030BE00BE0B502FBF0B502FC00B502F8D
:100EAC0000000A128A115E210A128A11B030F00079
:100EBC000030F1000A128A116D210A128A110230D7
:100ECC00F0000030F1000A128A116D210A128A1109
:100EDC000A128A1163210A128A11AD2F00300A12EC
:100EEC008A1107240A128A118312AE0001300A12E9
:100EFC008A1107240A128A118312AC000E30FC00EE
:100F0C00FD01FD0A2E080A128A118C240A128A117C
:100F1C000B30FC00FD01FD0A2C080A128A118C24EE
:100F2C000A128A110A128A1171220A128A111A30B3
:100F3C0083120313BF00F730BE00BE0BA32FBF0BF1
:100F4C00A32FA82F0A128A118C250A128A11831238
:100F5C000313C101C10A2F082E06031DBA2F2D0839
:100F6C002C06031DBA2FC101060CBE00BE0C3E0C94
:100F7C0001394105031D742FAE01AC010A128A110F
:100F8C005E210A128A11B030F0000030F1000A1212
:100F9C008A116D210A128A110330F0000030F10021
:100FAC000A128A116D210A128A110A128A116321FE
:100FBC000A128A110E30FC000230FD0000300A12B9
:100FCC008A118C240A128A110B30FC000230FD00AD
:100FDC0000300A128A118C240A128A11392E8313BA
:100FEC002030840033300A128A11742183010A12D2
:040FFC008A11EE2D3B
:08400000FF3FFF3FFF3FFF3FC0
:04400E00D420FF3F7C
:00000001FF
