:100000000A128A11F52F00308A000408840A820738
:10001000003454343A3420342034203420344334EF
:0E002000003453343A34203420343A3400345F
:100408000A128A111A22111408000A128A111A22D1
:10041800111508000A128A111A22911408000A12EA
:100428008A111A227008831293000800831614197F
:100438001A2A11081F39031908001A2A64008001B2
:10044800840A0406031900340406232A00300A1219
:100458008A115E220A128A1101300A128A115E225A
:100468000800F300F201731C3D2A7008F1007108BE
:10047800F2070310F00D0310F30C7308031D372A5D
:1004880072080800F000701C4C2A831208164E2AC5
:1004980083120812F01C522A8816532A8812701DDB
:1004A800572A0817582A0813F01D5C2A88170800CD
:1004B80088130800F30083120313081173080A1243
:1004C8008A1146220A128A1188150B30F20062300E
:1004D800F100F10B6D2AF20B6D2A00008312031351
:1004E80088110800F80078080F39F5007808F4003A
:1004F80004300310F40CFF3E031D7D2A74080F39E5
:10050800F6000A30F00076080A128A1135227507BB
:10051800F70077080800F3000830F400F5017308C5
:10052800F10007300310F10CFF3E031D962A7508F1
:10053800F20072077104F5000310F30D70087502DC
:10054800031CA82A7008F5020130F402031D932A3F
:1005580075080800F200F40170080319CD2AF301A8
:10056800F30AF01BBE2A0310F00D0130F1007108E8
:10057800F307B52A0310F40D70087202031CC82A89
:100588007008F20274140310F00C0130F302031D1A
:10059800BE2A74080800F700F501F6017508770708
:1005A80084000A128A1103200A128A11003A0319D8
:1005B80008007508770784000A128A1103200A12B6
:1005C8008A110A128A1143230A128A110130F50787
:1005D8000318F60A0030F607D22A0A128A111A22DC
:1005E8000A128A1191150A128A111A220A128A11FC
:1005F80083121308F200F3017208F4007308F5007F
:100608000A128A111A220A128A1170037104031D30
:100618000F2B9112102B911611167508F100740802
:10062800F000080003178801890103138801831269
:100638008801FE3083168600FE3083128600FE3065
:100648008316950081130B3083120313BD002630E7
:10065800BC005D30BB00BB0B2F2BBC0B2F2BBD0B85
:100668002F2B003083120313B6000130B5008630FB
:10067800B400A030B3000A128A1174230800F400F1
:1006880074080F39F2007408F039F3008312031369
:1006980008157308F10004300310F10CFF3E031D28
:1006A800502B71080A128A1146220A128A118815DB
:1006B8001A30F100F10B5E2B00008312031388112E
:1006C80072080A128A1146220A128A1188151A30EB
:1006D800F100F10B6D2B0000831203138811080041
:1006E800283094008316910183123308B700340828
:1006F800B8003508B9003608BA0002300310B70D43
:10070800B80DB90DBA0DFF3E031D822B3A08F30050
:100718003908F2003808F1003708F0000030F70017
:100728007A30F6001230F5000030F4000A128A110F
:10073800DE257008FF3E831693009401871507167F
:100748000800F5000A128A1104220A128A11D03010
:10075800F0000030F1000A128A1113220A128A11DD
:100768000030F000F1000A128A1113220A128A11CD
:100778007508F300F4017308F0007408F1000A1218
:100788008A1113220A128A117208F300F4017308FD
:10079800F0007408F1000A128A1113220A128A1151
:1007A8000A128A11092208006430F00078080A1237
:1007B8008A11AE220A128A11F9006430F000780812
:1007C8000A128A118F220A128A11FB000A30F000DD
:1007D8007B080A128A118F220A128A11FA00023043
:1007E80076067704031DFA2B790808007603770448
:1007F800031D052C0A30F0007B080A128A11AE226C
:10080800080076087704031D08007A0808000A1211
:100818008A1104220A128A11A130F0000030F10076
:100828000A128A1113220A128A110030F000F1000C
:100838000A128A11F1220A128A1170088312B00072
:100848000A128A1109220A128A114E3083120313DE
:10085800B500EA30B400B40B2F2CB50B2F2C0000D8
:100868000430FC000230FD008312031330080A1222
:100878008A11F7240800F0007008031D452C303059
:1008880008007003031D4A2C31300800023070063E
:10089800031D502C3230080003307006031D562CFF
:1008A8003330080004307006031D5C2C3430080017
:1008B80005307006031D622C3530080006307006BE
:1008C800031D682C3630080007307006031D6E2C97
:1008D8003730080008307006031D742C38300800C3
:1008E80009307006031D080039300800F600760349
:1008F800031D992C74087F3EF9007908F50004302F
:100908000310F50CFF3E031D842C7508F7007908C9
:100918000F39F80077080A128A115E220A128A1122
:1009280078080A128A115E22080002307606031D32
:1009380008007408BF3EF9007908F5000430031078
:10094800F50CFF3E031DA32C7508F70079080F3935
:10095800F80077080A128A115E220A128A117808AA
:100968000A128A115E220800FB000A128A11042268
:100978000A128A11D030F0000030F1000A128A11F0
:1009880013220A128A117B08F900FA017908F0008B
:100998007A08F1000A128A1113220A128A110A121D
:1009A8008A110E220A128A11D130F0000030F100AB
:1009B8000A128A1113220A128A110030F000F1007B
:1009C8000A128A11F1220A128A117008FC000A120E
:1009D8008A1109220A128A117C080A128A117622BF
:1009E800FC007C080800B3007C08013EF4007D0888
:1009F8000A128A117A240A128A110030F600F700C6
:100A0800831203133308F8000A128A11D8230A1232
:100A18008A110A128A113F240A128A1183120313B7
:100A2800B20032080A128A1143230A128A117C087A
:100A3800F4007D080A128A117A240A128A110130F8
:100A4800F6000030F700831203133308F8000A1287
:100A58008A11D8230A128A110A128A113F240A120B
:100A68008A1183120313B10031080A128A11432331
:100A78000800F00007307006031D452D70308316FE
:100A88008F0406307006031D4E2D83160F088F390C
:100A980060388F0005307006031D572D83160F0828
:100AA8008F3950388F0004307006031D602D83166F
:100AB8000F088F3940388F0003307006031D692DE9
:100AC80083160F088F3930388F0002307006031DE7
:100AD800722D83160F088F3920388F007003031D7D
:100AE8007A2D83160F088F3910388F007008031D70
:100AF800802D8F3083168F0583160F140800003061
:100B08000A128A1146220A128A113430F500F1308D
:100B1800F400F40B8D2DF50B8D2D922D03300A1258
:100B28008A115E220A128A110D30F500FB30F4009A
:100B3800F40B9C2DF50B9C2DA12D03300A128A1164
:100B48005E220A128A111D30F5009130F400F40B70
:100B5800AB2DF50BAB2D03300A128A115E220A1257
:100B68008A1102300A128A115E220A128A11023090
:100B78000A128A115E220A128A1108300A128A1190
:100B88005E220A128A1100300A128A115E220A12A3
:100B98008A110C300A128A115E220A128A11003058
:100BA8000A128A115E220A128A1106300A128A1162
:100BB8005E2208000030FC000030FB000030FA0024
:100BC8000030F90073087204710470040319332E9D
:100BD800FD01FD0AF31BFE2D0130F8000310F00D96
:100BE800F10DF20DF30DF80BF22D0130F800780835
:100BF800FD07EE2D0130F8000310F90DFA0DFB0D7D
:100C0800FC0DF80B002E73087702031D152E7208D1
:100C18007602031D152E71087502031D152E700826
:100C28007402031C262E7008F4027108031C710F4D
:100C3800F5027208031C720FF6027308031C730F87
:100C4800F702791401300310F30CF20CF10CF00CDC
:100C5800FF3E031D272E0130FD02031DFE2D7C08DB
:100C6800F3007B08F2007A08F1007908F000080028
:100C780007300A128A113D250A128A110A128A11AE
:100C880016230A128A110A128A1183250A128A1156
:100C98000A128A112A220A128A110D30F400013030
:100CA8000A128A117A240A128A113A300A128A110F
:100CB80043230A128A110930F40002300A128A11F9
:100CC8007A240A128A1109300A128A11CF220A12CA
:100CD8008A11F401F40A02300A128A117A240A12DB
:100CE8008A1101300A128A11CF220A128A1183123C
:100CF8000313AB01AF01AD01F20100300A128A11F2
:100D0800A5230A128A110A128A110B240A128A11BF
:100D1800F20100300A128A11A5230A128A11003042
:100D28000A128A11B8240A128A118312AF000E30EF
:100D3800FC00FD01FD0A2F080A128A11F7240A1285
:100D48008A1101300A128A11B8240A128A118312F0
:100D5800AD000B30FC00FD01FD0A2D080A128A11B6
:100D6800F7240A128A118618EF2E2A080319CE2EA4
:100D7800AA010A128A1104220A128A11B030F0005C
:100D88000030F1000A128A1113220A128A11003067
:100D9800F000E42E2A08031DEF2EAA01AA0A0A125F
:100DA8008A1104220A128A11B030F0000030F100D2
:100DB8000A128A1113220A128A110130F000003037
:100DC800F1000A128A1113220A128A110A128A11D0
:100DD80009220A128A118312061E4D2F872E0A1223
:100DE8008A110B240A128A110E30FC00FD01FD0A3B
:100DF8002F080A128A11F7240A128A110B30FC00F4
:100E0800FD01FD0A2D080A128A11F7240A128A1117
:100E1800861B172F2B08031D162F0130BE003E0816
:100E2800AB07172FAB01061B342F2B08031D272FE9
:100E38003B302F020318252F0130BE003E08AF07B4
:100E4800342FAF01342F2B03031D342F3B302D02D9
:100E58000318332F0130BE003E08AD07342FAD0113
:100E6800861A4D2F2B08031D422F2F0803193F2FD9
:100E78000130AF024D2F3B30AF004D2F2B03031D28
:100E88004D2F2D0803194B2F0130AD024D2F3B304C
:100E9800AD008619F32EF20100300A128A11A5233B
:100EA8000A128A110E30FC000230FD0083122F084E
:100EB8000A128A11F7240A128A110B30FC00023038
:100EC800FD002D080A128A11F7240A128A110A1243
:100ED8008A1104220A128A11B030F0000030F100A1
:100EE8000A128A1113220A128A110030F000F10046
:100EF8000A128A1113220A128A110A128A11092265
:100F08000A128A118312AA01063083120313C00041
:100F18001330BF00AD30BE00BE0B902FBF0B902F1B
:100F2800C00B902FCB2F00300A128A11B8240A1256
:100F38008A118312AE0001300A128A11B8240A12EB
:100F48008A118312AC000E30FC00FD01FD0A2E0848
:100F58000A128A11F7240A128A110B30FC00FD01CB
:100F6800FD0A2C080A128A11F7240A128A110A1299
:100F78008A110B240A128A111A3083120313BF0034
:100F8800F730BE00BE0BC62FBF0BC62FCB2F831268
:100F98000313C101C10A2F082E06031DD82F2D08DF
:100FA8002C06031DD82FC101060CBE00BE0C3E0C3A
:100FB80001394105031D972F0E30FC000230FD005A
:100FC80000300A128A11F7240A128A110B30FC0029
:100FD8000230FD0000300A128A11F7240A128A1121
:100FE800872E83132030840033300A128A1122227C
:080FF80083010A128A113C2E4C
:08400000FF3FFF3FFF3FFF3FC0
:04400E00D420FF3F7C
:00000001FF
