:060000000A128A11122809
:10000800FE00030E83120313B5000408B6000A08A5
:10001800B7007F08B8000A128A1106290A128A1145
:100028001528FA01FB01FC01FD0183120313BD0130
:10003800BE01BF0183010A128A11A9298312031381
:10004800A8000A128A11D8210A128A110A128A11E2
:1000580006220A128A110A128A1165210A128A11C5
:10006800710883120313AA007008A9000A128A11E2
:1000780065210A128A11710883120313AC007008F3
:10008800AB000A128A1165210A128A1171088312BB
:100098000313AE007008AD000A128A1165210A1216
:1000A8008A11710883120313B0007008AF000A1296
:1000B8008A1165210A128A11710883120313B2008A
:1000C8007008B100280884002D0880007808840092
:1000D8002F0880002D082B07A0002E0803182E0AD1
:1000E8002C07A1002F082007A20030080318300AA7
:1000F8002107A30029082207A4002A0803182A0AAE
:100108002307A500FF302405A60000302505A70019
:1001180027083206031D922826083106031D952854
:1001280096289B280130F8000030F9009D28F80136
:10013800F901080083120313B90007303906031DBB
:10014800A628A728AB287030831603138F0406301F
:1001580083123906031DB128B228B8288316031361
:100168000F088F3960388F00053083123906031D58
:10017800BE28BF28C528831603130F088F395038A7
:100188008F00043083123906031DCB28CC28D228CF
:10019800831603130F088F3940388F0003308312FA
:1001A8003906031DD828D928DF28831603130F081A
:1001B8008F3930388F00023083123906031DE52845
:1001C800E628EC28831603130F088F3920388F0090
:1001D80083123903031DF128F228F8288316031324
:1001E8000F088F3910388F0083123908031DFD2836
:1001F800FE2802298F30831603138F0583160313F5
:100208000F1408000B1D09290A293F297C30F80022
:100218007D300A128A1122200A128A117908831263
:100228000313BE007808BD000B11643081007A0802
:10023800031D1F2920293029881403308312031332
:10024800B4009030B300B30B2729B40B2729000062
:100258008312031388103F29881404308312031370
:10026800B400E330B300B30B3729B40B37293C296A
:100278008312031388100B1C422943295A29861B11
:10028800462947295A29861F4A294B2947297A0886
:1002980003194F2950295229FA0159297A08031DAF
:1002A800562957295929FA01FA0A0B103808FF006C
:1002B80037088A0036088400350E8300FE0E7E0E4D
:1002C8000900F601F701F401F50183120313081C74
:1002D8006E296F2969291330F200F20B71297429EC
:1002E80083120313081C79297A2988297708F300CF
:1002F8007608F2000310F20DF30D01307204F600D7
:1003080000307304F7008D290310760DF600770D81
:10031800F7000818902991298D290130F40703184E
:10032800F50A0030F5077508803AFF0080307F0233
:10033800031DA02908307402031CA329A4296929D4
:100348007708F1007608F000080007300A128A11D1
:100358009E200A128A110A128A11F3210A128A119E
:100368000A128A1123220A128A110A128A111522E4
:100378000A128A1183120313BF017D088312031323
:100388008500033083120313BC000830BB007630AD
:10039800BA00BA0BCD29BB0BCD29BC0BCD29000067
:1003A800C1290A128A11122883160313081083120E
:1003B800031308103430F100F130F000F00BE2299B
:1003C800F10BE229E7298312031308141330F00014
:1003D800F00BEC29EF298316031308140800831681
:1003E80003178801890183160313850183120313F8
:1003F80085018316031388108312031308108B17C3
:100408000B1708008312031308180B2A0C2A062A54
:10041800081C0F2A102A0C2A0818132A142A102A32
:1004280008008B178B160B11831603138112811189
:100438000730810464308312031381000800803080
:100448008316031386008B150B10803096008030BE
:060458009500811308006D
:08400000FF3FFF3FFF3FFF3FC0
:04400E00D420FF3F7C
:00000001FF
