:060000000A128A110C280F
:10000800FE00030EF1000A08F2000A128A11742891
:100018000A128A110F28F401F50183010A128A11C4
:100028000229F30007307306031D1B281C2820280B
:100038007030831603138F0406307306031D2528BA
:1000480026282C28831603130F088F3960388F0051
:1000580005307306031D3128322838288316031308
:100068000F088F3950388F0004307306031D3D2860
:100078003E284428831603130F088F3940388F0011
:1000880003307306031D49284A2850288316031392
:100098000F088F3930388F0002307306031D55283A
:1000A80056285C28831603130F088F3920388F00D1
:1000B8007303031D602861286728831603130F083C
:1000C8008F3910388F007308031D6B286C2870282F
:1000D8008F30831603138F05831603130F1408003C
:1000E800831203138C1D79287A28CC281412141B28
:1000F8007E287F288328941F82288328882813082D
:10010800F40014139413141683160313941A8D28E9
:100118008E28AA28141991289228AA288312031332
:100128001308F4008C11141683160313141C9D284D
:100138009E289828831203131308F4001308F50067
:10014800A630F000F00BA6280000C928941AAD28A4
:10015800AE28C928141DB128B228C9288312031350
:100168001308F400831603131410831203130608EC
:1001780093001416A630F000F00BC0280000831678
:1001880003131418C828C928C328831203138C1111
:1001980072088A00710E8300FE0E7E0E0900F300BD
:1001A80073088316031393003630831203139400E5
:1001B80080308316031394000130910087150716C9
:1001C8008B170B17831203138C11831603138C15CB
:1001D8000800831603178801890183160313860113
:1001E8008801831203138601870188018B17503019
:1001F8000A128A11D3200A128A11080005300A123D
:100208008A1115200A128A110A128A11ED200A127F
:0C0218008A11F5010E290A128A110C2827
:08400000FF3FFF3FFF3FFF3FC0
:04400E00D420FF3F7C
:00000001FF
