:100000000A128A11F52F00308A000408840A820738
:10001000003454343A3420342034203420344334EF
:0E002000003453343A34203420343A3400345F
:100456000A128A114922111408000A128A11492225
:10046600111508000A128A114922911408000A126D
:100476008A114922700883129300080064008001E3
:10048600840A0406031900340406422A8316031359
:100496001419492A11081F3903190800492A00307E
:1004A6000A128A1186220A128A1101300A128A1148
:1004B60086220800F300F201731C652A7008F10019
:1004C6007108F2070310F00D0310F30C7308031DF7
:1004D6005F2A72080800F000701C742A831208163E
:1004E600762A83120812F01C7A2A88167B2A88122A
:1004F600701D7F2A0817802A0813F01D842A881782
:10050600080088130800F300831203130811730808
:100516000A128A116E220A128A1188150B30F2000D
:100526006230F100F10B952AF20B952A0000831236
:10053600031388110800F80078080F39F5007808C9
:10054600F40004300310F40CFF3E031DA52A7408C2
:100556000F39F6000A30F00076080A128A115D2279
:100566007507F70077080800F3000830F400F50176
:100576007308F10007300310F10CFF3E031DBE2A7D
:100586007508F20072077104F5000310F30D700888
:100596007502031CD02A7008F5020130F402031D0F
:1005A600BB2A75080800F200F40170080319F52A41
:1005B600F301F30AF01BE62A0310F00D0130F100F7
:1005C6007108F307DD2A0310F40D70087202031C8C
:1005D600F02A7008F20274140310F00C0130F302D2
:1005E600031DE62A74080800F700F501F6017508F0
:1005F600770784000A128A1103200A128A11003A28
:10060600031908007508770784000A128A11032067
:100616000A128A110A128A116B230A128A110130F0
:10062600F5070318F60A0030F607FA2A0A128A11A5
:1006360049220A128A1191150A128A1149220A12AE
:100646008A1183121308F200F3017208F40073088A
:10065600F5000A128A1149220A128A1170037104DE
:10066600031D372B9112382B911611167508F100C0
:100676007408F00008000317880189010313880134
:1006860083128801FE3083168600FE3083128600B0
:10069600FE308316950081130B3083120313BD00C1
:1006A6002630BC005D30BB00BB0B572BBC0B572B59
:1006B600BD0B572B003083120313B6000130B50073
:1006C6008630B400A030B3000A128A119C230800B9
:1006D600F40074080F39F2007408F039F30083123D
:1006E600031308157308F10004300310F10CFF3EE4
:1006F600031D782B71080A128A116E220A128A11BA
:1007060088151A30F100F10B862B000083120313B3
:10071600881172080A128A116E220A128A11881525
:100726001A30F100F10B952B000083120313881188
:100736000800283094008316910183123308B7000D
:100746003408B8003508B9003608BA00023003107C
:10075600B70DB80DB90DBA0DFF3E031DAA2B3A0809
:10076600F3003908F2003808F1003708F0000030CD
:10077600F7007A30F6001230F5000030F4000A1265
:100786008A1105267008FF3E83169300940187158B
:1007960007160800F5000A128A112B220A128A117E
:1007A600D030F0000030F1000A128A113A220A1203
:1007B6008A110030F000F1000A128A113A220A1258
:1007C6008A117508F300F4017308F0007408F1004B
:1007D6000A128A113A220A128A117208F300F401E7
:1007E6007308F0007408F1000A128A113A220A12FC
:1007F6008A110A128A11302208006430F000780843
:100806000A128A11D6220A128A11F9006430F000FF
:1008160078080A128A11B7220A128A11FB000A30D6
:10082600F0007B080A128A11B7220A128A11FA000E
:10083600023076067704031D222C79080800760319
:100846007704031D2D2C0A30F0007B080A128A114A
:10085600D622080076087704031D08007A080800E7
:100866000A128A112B220A128A11A130F0000030D6
:10087600F1000A128A113A220A128A110030F00097
:10088600F1000A128A1119230A128A1170088312BA
:10089600B0000A128A1130220A128A11823083129B
:1008A6000313B500DD30B400B40B572CB50B572C31
:1008B6000430FC000230FD008312031330080A12D4
:1008C6008A111E250800F0007008031D6C2C3030BC
:1008D60008007003031D712C3130080002307006C9
:1008E600031D772C3230080003307006031D7D2C63
:1008F6003330080004307006031D832C34300800A2
:1009060005307006031D892C353008000630700648
:10091600031D8F2C3630080007307006031D952CFA
:100926003730080008307006031D9B2C383008004D
:1009360009307006031D080039300800F6007603FA
:10094600031DC02C74087F3EF9007908F5000430B9
:100956000310F50CFF3E031DAB2C7508F700790854
:100966000F39F80077080A128A1186220A128A11AC
:1009760078080A128A118622080002307606031DBC
:1009860008007408BF3EF9007908F500043003102A
:10099600F50CFF3E031DCA2C7508F70079080F39C0
:1009A600F80077080A128A1186220A128A11780834
:1009B6000A128A1186220800FB000A128A112B22CB
:1009C6000A128A11D030F0000030F1000A128A11A2
:1009D6003A220A128A117B08F900FA017908F00016
:1009E6007A08F1000A128A113A220A128A110A12A8
:1009F6008A1135220A128A11D130F0000030F10036
:100A06000A128A113A220A128A110030F000F10005
:100A16000A128A1119230A128A117008FC000A1296
:100A26008A1130220A128A117C080A128A119E2221
:100A3600FC007C080800B3007C08013EF4007D0839
:100A46000A128A11A1240A128A110030F600F70050
:100A5600831203133308F8000A128A1100240A12BB
:100A66008A110A128A1166240A128A118312031342
:100A7600B20032080A128A116B230A128A117C0804
:100A8600F4007D080A128A11A1240A128A11013083
:100A9600F6000030F700831203133308F8000A1239
:100AA6008A1100240A128A110A128A1166240A126D
:100AB6008A1183120313B10031080A128A116B23BB
:100AC6000800F00007307006031D6C2D7030831689
:100AD6008F0406307006031D752D83160F088F3997
:100AE60060388F0005307006031D7E2D83160F08B3
:100AF6008F3950388F0004307006031D872D8316FA
:100B06000F088F3940388F0003307006031D902D73
:100B160083160F088F3930388F0002307006031D98
:100B2600992D83160F088F3920388F007003031D07
:100B3600A12D83160F088F3910388F007008031DFA
:100B4600A72D8F3083168F0583160F1408000030EB
:100B56000A128A116E220A128A113430F500F13017
:100B6600F400F40BB42DF50BB42DB92D03300A1295
:100B76008A1186220A128A110D30F500FB30F40024
:100B8600F40BC32DF50BC32DC82D03300A128A11A1
:100B960086220A128A111D30F5009130F400F40BFA
:100BA600D22DF50BD22D03300A128A1186220A1293
:100BB6008A1102300A128A1186220A128A1102301A
:100BC6000A128A1186220A128A1108300A128A111A
:100BD60086220A128A1100300A128A1186220A1205
:100BE6008A110C300A128A1186220A128A110030E2
:100BF6000A128A1186220A128A1106300A128A11EC
:100C0600862208000030FC000030FB000030FA00AD
:100C16000030F900730872047104700403195A2E27
:100C2600FD01FD0AF31B252E0130F8000310F00D1F
:100C3600F10DF20DF30DF80B192E0130F8007808BE
:100C4600FD07152E0130F8000310F90DFA0DFB0D06
:100C5600FC0DF80B272E73087702031D3C2E720835
:100C66007602031D3C2E71087502031D3C2E70088A
:100C76007402031C4D2E7008F4027108031C710FD8
:100C8600F5027208031C720FF6027308031C730F39
:100C9600F702791401300310F30CF20CF10CF00C8E
:100CA600FF3E031D4E2E0130FD02031D252E7C083E
:100CB600F3007B08F2007A08F1007908F0000800DA
:100CC60007300A128A1164250A128A110A128A1139
:100CD6003E230A128A110A128A11AA250A128A11B9
:100CE6000A128A1152220A128A110D30F4000130BA
:100CF6000A128A11A1240A128A113A300A128A119A
:100D06006B230A128A110930F40002300A128A1182
:100D1600A1240A128A1109300A128A11F7220A122C
:100D26008A11F401F40A02300A128A11A1240A1265
:100D36008A1101300A128A11F7220A128A118312C5
:100D46000313AB01AF01AD01F20100300A128A11A3
:100D5600CD230A128A110A128A1133240A128A1121
:100D6600F20100300A128A11CD230A128A110030CC
:100D76000A128A11DF240A128A118312AF000E307A
:100D8600FC00FD01FD0A2F080A128A111E250A120F
:100D96008A1101300A128A11DF240A128A1183127B
:100DA600AD000B30FC00FD01FD0A2D080A128A1168
:100DB6001E250A128A118618EC2E861CE02E2A0899
:100DC6000319E72EAA01EC2E2A08031DEC2EAA0110
:100DD600AA0A061AAE2E1A3083120313BF00F73082
:100DE600BE00BE0BF42EBF0BF42EF92E8312031396
:100DF600861D882F1A3083120313BF00F730BE00FA
:100E0600BE0B032FBF0B032F082F0A128A113324A0
:100E16000A128A110E30FC00FD01FD0A2F080A1283
:100E26008A111E250A128A110B30FC00FD01FD0AEB
:100E36002D080A128A111E250A128A11861B392FBD
:100E46001A3083120313BF00F730BE00BE0B292FE2
:100E5600BF0B292F2E2F831203132B08031D382FA8
:100E66000130BE003E08AB07392FAB01061B622FCF
:100E7600343083120313BF00F130BE00BE0B412F86
:100E8600BF0B412F831203132B08031D552F3B3035
:100E96002F020318532F0130BE003E08AF07622F02
:100EA600AF01622F2B03031D622F3B302D02031867
:100EB600612F0130BE003E08AD07622FAD01861AD4
:100EC600F92E343083120313BF00F130BE00BE0B7F
:100ED6006A2FBF0B6A2F831203132B08031D7C2F67
:100EE6002F080319792F0130AF02F92E3B30AF00DE
:100EF600F92E2B03031DF92E2D080319852F01301A
:100F0600AD02F92E3B30AD00F92EF20100300A1287
:100F16008A11CD230A128A110E30FC000230FD0020
:100F260083122F080A128A111E250A128A110B3003
:100F3600FC000230FD002D080A128A111E250A1235
:100F46008A11CE2F00300A128A11DF240A128A1162
:100F56008312AE0001300A128A11DF240A128A11A6
:100F66008312AC000E30FC00FD01FD0A2E080A12A9
:100F76008A111E250A128A110B30FC00FD01FD0A9A
:100F86002C080A128A111E250A128A110A128A11BF
:100F960033240A128A11C001C00A2F082E06031D27
:100FA600D92F2D082C06031DD92FC001060CBE0013
:100FB6003E0C01394005031DA52F0E30FC00023002
:100FC600FD0000300A128A111E250A128A110B3002
:100FD600FC000230FD0000300A128A111E250A129A
:100FE6008A11AE2E83132030840033300A128A1100
:0A0FF600412283010A128A11632EC2
:08400000FF3FFF3FFF3FFF3FC0
:04400E00D420FF3F7C
:00000001FF
