:060000000A128A110C280F
:10000800FE00030EF2000A08F3000A128A15F92D01
:100018000A128A110F28F90183120313EE018316BD
:100028000313B901BA01BB01BC01BD01BE018301C3
:100038000A128A11FB2E831203135C088039831677
:100048000313A000831203135C08E1006107831601
:100058000313A60083120313DB1F33283428372821
:1000680083160313261483160313260803193D2841
:100078003E285028260A031D422843284D280030D0
:1000880083120313DC000030DB000030DA0000309C
:10009800D9008312DB175A28003083120313DC00BF
:1000A8000030DB000030DA000030D9006008803909
:1000B800E100610883160313A00683120313600886
:1000C800E100610783160313A50083120313DF1FE2
:1000D8006E286F28722883160313251483160313BA
:1000E80025080319782879288B28250A031D7D28D7
:1000F8007E288828003083120313E0000030DF00D8
:100108000030DE000030DD008312DF179528003054
:1001180083120313E0000030DF000030DE000030FF
:10012800DD0083160313250803199B289C28A128A2
:100138002608031DA028A128AC2800308312031329
:10014800DC000030DB000030DA000030D900272D59
:10015800831203135908F4005F080A128A15BC2396
:100168000A128A11750883160313AC007408AB00D1
:100178002B0883120313E100E201E301E4016408A0
:1001880083160313A400831203136308831603134F
:10019800A30083120313620883160313A2008312B9
:1001A8000313610883160313A1002C088312031399
:1001B800E100E201E301E401640883160313AA00E5
:1001C80083120313630883160313A900831203130E
:1001D800620883160313A8008312031361088316A9
:1001E8000313A700831203135A08F4005E080A12C7
:1001F8008A15BC230A128A11750883160313AC00EA
:100208007408AB002B0883120313E100E201E30139
:10021800E401610883160313A1078312031362081C
:1002280003110318013E03191C2983160313A2079F
:1002380083120313630803110318013E03192729C6
:1002480083160313A3078312031364080311031807
:10025800013E0319322983160313A40783120313DB
:10026800831603132C0883120313E100E201E30150
:10027800E401610883160313A707831203136208B6
:1002880003110318013E03194C2983160313A80709
:1002980083120313630803110318013E0319572936
:1002A80083160313A90783120313640803110318A1
:1002B800013E0319622983160313AA078312031345
:1002C80083160313831203135B08F4005D080A12F4
:1002D8008A15BC230A128A11750883160313AC0009
:1002E8007408AB002B0883120313E100E201E30159
:1002F800E401610883160313A1078312031362083C
:1003080003110318013E03198C2983160313A2074E
:1003180083120313630803110318013E0319972975
:1003280083160313A3078312031364080311031826
:10033800013E0319A22983160313A407831203138A
:10034800831603132C0883120313E100E201E3016F
:10035800E401610883160313A707831203136208D5
:1003680003110318013E0319BC2983160313A807B8
:1003780083120313630803110318013E0319C729E5
:1003880083160313A90783120313640803110318C0
:10039800013E0319D22983160313AA0783120313F4
:1003A80083160313083083120313E1000310831626
:1003B8000313A10DA20DA30DA40D83120313E10BCA
:1003C800DA295A08F4005D080A128A15BC230A12B1
:1003D8008A11750883160313AC007408AB002B0848
:1003E80083120313E100831603132C0883120313EB
:1003F800E200E301E401610883160313A1078312F5
:100408000313620803110318013E03190E2A831609
:100418000313A20783120313630803110318013E91
:100428000319192A83160313A307831203136408F5
:1004380003110318013E0319242A83160313A40782
:100448008312031383160313831203135908F4004A
:100458005E080A128A15BC230A128A1175088316C7
:100468000313AC007408AB002B0883120313E100DC
:10047800831603132C0883120313E200E301E4013B
:10048800610883160313A10783120313620803117B
:100498000318013E0319532A83160313A207831274
:1004A8000313630803110318013E03195E2A831618
:1004B8000313A30783120313640803110318013EEF
:1004C8000319692A83160313A407831203138316D7
:1004D8000313083083120313E10003108316031378
:1004E800A10DA20DA30DA40D83120313E10B712A14
:1004F8005908F4005D080A128A15BC230A128A11E9
:10050800750883160313AC007408AB002B0883121C
:100518000313E100831603132C0883120313E2006C
:10052800E301E401610883160313A107831203138F
:10053800620803110318013E0319A52A8316031341
:10054800A20783120313630803110318013E03195A
:10055800B02A83160313A307831203136408031135
:100568000318013E0319BB2A83160313A407831239
:10057800031383160313831203135A08F4005F0846
:100588000A128A15BC230A128A11750883160313E6
:10059800AC007408AB002B0883120313E100831628
:1005A80003132C0883120313E200E301E40161083A
:1005B80083160313A7078312031362080311031892
:1005C800013E0319EA2A83160313A80783120313AB
:1005D800630803110318013E0319F52A8316031350
:1005E800A90783120313640803110318013E0319B2
:1005F800002B83160313AA0783120313831603130E
:10060800831203135B08F4005E080A128A15BC23E0
:100618000A128A11750883160313AC007408AB001C
:100628002B0883120313E100831603132C0883128B
:100638000313E200E301E401610883160313A7072B
:1006480083120313620803110318013E03192F2BA9
:1006580083160313A80783120313630803110318EF
:10066800013E03193A2B83160313A90783120313B8
:10067800640803110318013E0319452B831603135D
:10068800AA078312031383160313831203135B0849
:10069800F4005F080A128A15BC230A128A11750829
:1006A80083160313AC007408AB002B0883120313E2
:1006B800E100831603132C0883120313E200E301FD
:1006C800E40108300310E10DE20DE30DE40DFF3EF7
:1006D800031D662B610883160313A70783120313F0
:1006E800620803110318013E03197D2B83160313B7
:1006F800A80783120313630803110318013E0319A3
:10070800882B83160313A9078312031364080311A4
:100718000318013E0319932B83160313AA078312A8
:10072800031383160313210883120313E1008316AE
:100738000313220883120313E2008316031323080A
:1007480083120313E300831603132408831203138D
:10075800E40018300310E40CE30CE20CE10CFF3E5B
:10076800031DAE2B610883160313A7078312031317
:10077800620803110318013E0319C52B83160313DE
:10078800A80783120313630803110318013E031912
:10079800D02B83160313A9078312031364080311CC
:1007A8000318013E0319DB2B83160313AA078312D0
:1007B800031383160313083083120313E100031095
:1007C80083160313A10DA20DA30DA40D8312031309
:1007D800E10BE32B83160313260825078312031363
:1007E800E100E201E20D6108823E83160313AB00CB
:1007F8008312031362080318013EFF3E8316031396
:10080800AC00332C013083120313E100031083166C
:100818000313A70DA80DA90DAA0D83120313E10B4D
:100828000A2C83160313A41F1A2C1B2C1C2C271408
:10083800013083120313E100031083160313A10D83
:10084800A20DA30DA40D83120313E10B202CFF307E
:1008580083160313AB070318AC0AFF30AC07A91FB4
:10086800362C372C062CA501A41F3B2C3C2C6A2CBB
:10087800FF30210583120313E100FF3083160313B1
:10088800220583120313E200FF30831603132305A6
:1008980083120313E3007F308316031324058312A6
:1008A8000313E400640863046204610403195D2C03
:1008B8005E2C632C83160313A501A50A6A2C8316E4
:1008C8000313271C682C692C6A2C5E2C2508031935
:1008D8006E2C6F2CBC2C0130A70700300318013098
:1008E800A807003003180130A907003003180130A9
:1008F800AA072A1C802C812CBC2C270883120313DE
:10090800E10083160313280883120313E2008316F9
:100918000313290883120313E300831603132A0819
:1009280083120313E4000130E500640DE40CE30CCA
:10093800E20CE10CE50B992C640883160313AA005A
:1009480083120313630883160313A9008312031386
:10095800620883160313A800831203136108831621
:100968000313A7000130AB070318AC0A0030AC072B
:100978002C08803AFF0080307F02031DC52CFF3011
:100988002B02031CC82CC92CD42C7F3083160313CC
:10099800AA008030A9000030A8000030A700092D67
:1009A800831603132C08803AFF0080307F02031D52
:1009B800DF2C01302B020318E22CE32CEF2C003043
:1009C80083160313AA000030A9000030A8000030E5
:1009D800A700A001092D831603132B08A600FF30DA
:1009E800A705FF30A8057F30A9050030AA05261CF9
:1009F800FE2CFF2C002DA917260883120313E100F3
:100A08000310610C83160313AA0020088312031332
:100A1800E100610883160313AA042A08831203134A
:100A2800DC0083160313290883120313DB008316E3
:100A38000313280883120313DA0083160313270805
:100A480083120313D9000800831203134608803960
:100A5800D0004608C7004707D700C51F342D352DDD
:100A6800362D5714570803193A2D3B2D4B2D570A8D
:100A7800031D3F2D402D482D0030C6000030C50015
:100A88000030C4000030C300C517C601532D003024
:100A9800C6000030C5000030C4000030C300420862
:100AA8008039C7004708D0064208C7004707D80062
:100AB800C11F5F2D602D612D581458080319652D2D
:100AC800662D762D580A031D6A2D6B2D732D003067
:100AD800C2000030C1000030C0000030BF00C117A4
:100AE800C2017E2D0030C2000030C1000030C000BD
:100AF8000030BF004208410440043F04031D852D17
:100B0800862D9F2D0030C6000030C5000030C4007F
:100B18000030C3008030C5047F30C6045008C700C9
:100B28004708C6044608C2004508C1004408C0007A
:100B38004308BF00FA2E5708031DA32DA42DAD2D81
:100B48000030C2000030C1000030C0000030BF00DB
:100B5800FA2E5708C700C8014808CA0058084702B3
:100B6800C900031CCA0349087F3ED1004A0803187C
:100B7800013E003ED2004608CF004508CE0044089A
:100B8800CD004308CC000030C6000030C50000305E
:100B9800C4000030C3000030D6000030D50000305B
:100BA800D4000030D300D801232E58080319DD2DB6
:100BB800DE2DFE2D0130C7000310CC0DCD0DCE0D5E
:100BC800CF0DC70BE02D0130C7000310C30DC40DB6
:100BD800C50DC60DC70BE92DD61FF32DF42DF52D28
:100BE80043140130C7000310D30DD40DD50DD60D15
:100BF800C70BF72D42084F02031D0C2E41084E0269
:100C0800031D0C2E40084D02031D0C2E3F084C02FC
:100C1800031C0F2E102E1F2E56173F08CC0240081B
:100C2800031C400FCD024108031C410FCE024208AD
:100C3800031C420FCF020130C7004708D8071A30FB
:100C48005802031C282E292ED92D4F084E044D0476
:100C58004C040319302E312E502E5314502E0130CF
:100C6800C7000310C30DC40DC50DC60DC70B352E27
:100C7800D61F3F2E402E412E43140130C7000310CB
:100C8800D30DD40DD50DD60DC70B432EFF30D1078C
:100C98000318D20AFF30D207C51F532E542E332E05
:100CA800D801D61F582E592E752EFF305305C70070
:100CB800FF305405C800FF305505C9007F30560580
:100CC800CA004A0849044804470403196C2E6D2ECB
:100CD800702ED801D80A752E431C732E742E752ECB
:100CE8006D2E58080319792E7A2EAB2E0130C307C2
:100CF800003003180130C407003003180130C5075D
:100D0800003003180130C607461C8B2E8C2EAB2EE4
:100D18004308C7004408C8004508C9004608CA0077
:100D28000130CB004A0DCA0CC90CC80CC70CCB0B40
:100D3800962E4A08C6004908C5004808C400470856
:100D4800C3000130D1070318D20A0030D207520875
:100D5800803AFF0080307F02031DB42EFF3051021D
:100D6800031CB72EB82EC62EFF3083120313D100F2
:100D78000030D2000030C6000030C5000030C4008A
:100D88000030C300831203135208803AFF008030FA
:100D98007F02031DD12E013051020318D42ED52E07
:100DA800E22E83120313D101D2010030C6000030B5
:100DB800C5000030C4000030C300D0018312031303
:100DC8005108D700571CE92EEA2EEC2EC517F02E35
:100DD8007F30C7004708C5055708C7000310470CF0
:100DE800C6005008C7004708C604962D08000730FB
:100DF8000A128A15A4240A128A110A128A157C2357
:100E08000A128A110A128A156D230A128A110A1205
:100E18008A158D230A128A11003083120313B00039
:100E28000030AF001330AE008830AD000A128A11CE
:100E3800BA270A128A11831603133C08B0003B082C
:100E4800AF000030B4000030B3001330B200883077
:100E5800B1000A128A1542270A128A110130F400D9
:100E68000030F5000A128A1518240A128A11831212
:100E780003136E08031D412F422F462F83160313B9
:100E8800BD013B2F6E03031D4A2F4B2F502F831696
:100E98000313BD01BD0A3B2F02306E06031D552FFB
:100EA800562F912F0030F400F5000A128A155124AC
:100EB8000A128A11740883160313BE003E08B7008D
:100EC800B8010310B70DB80D0310B70DB80D3708EA
:100ED800BB003808BC003A083C06031D752F3908CA
:100EE8003B060319782F792F3B2F3C08B0003B08AD
:100EF800AF000030B4000030B3001330B2008830C7
:100F0800B1000A128A1542270A128A11831603139E
:100F18003C08BA003B08B9003B2F03306E06031D9E
:100F2800962F972FB62F83160313BB01BC013908E0
:100F38003A040319A02FA12FB62F0030AF00B0003C
:100F48000030B4000030B3001330B2008830B10074
:100F58000A128A1542270A128A1183160313B90145
:100F6800BA013B2F3B2F0A128A110C288312031354
:100F78002D08F5002E08F6002F08F7003008F800B5
:100F880002300310F50DF60DF70DF80DFF3E031DA9
:100F9800C52F02300310F50DF60DF70DF80DFF3EC5
:100FA800031DCE2F7808A3007708A2007608A100B9
:100FB8007508A0000030A7007A30A6001230A500FE
:100FC8000030A4000A128A1503250A128A11831216
:100FD80003132008FF3E831603139200080007300E
:100FE8008A000408840A82070034883413340034E1
:020FF8000034C3
:1016DA008B178B160B1183160313811201128111BA
:1016EA0007308104643083120313810008008316D3
:1016FA0003178801890183160313881083120313C1
:10170A008810B0300A128A15A2230A128A15080014
:10171A008316031307150C308312031397008C10DA
:10172A001208FC390138920012158C1C9D2B9E2B35
:10173A009A2B8316031307110800F4007408831602
:10174A0003139300363083120313940080308316F8
:10175A000313940001309100871507168B170B1796
:10176A00831203138C11831603138C15080083123A
:10177A000313A400A001A1017408F600F70176087A
:10178A00A2007708A300241CCB2BCC2BD22B220837
:10179A00A0070318A10A2308A10701300310A20D0C
:1017AA00A30DFF3E031DD32B0310A40C2408031D15
:1017BA00DF2BE02BC82B2108F5002008F4000800D5
:1017CA00831203132D08F5002E08F6002F08F700E0
:1017DA003008F80002300310F50DF60DF70DF80D7C
:1017EA00FF3E031DF02B7808A3007708A2007608B5
:1017FA00A1007508A0000030A7007A30A6001230B8
:10180A00A5000030A4000A128A1503250A128A15B7
:10181A00831203132308B0002208AF002108AE0088
:10182A002008AD000800741C1B2C1C2C252C8312CC
:10183A0003130510831603130514831603170814DC
:10184A00F41C282C292C322C83120313851083169E
:10185A0003138514831603178814741D352C362C2C
:10186A003F2C8312031305118316031305158316E0
:10187A0003170815831203139F131F1783160313E5
:10188A009F121F129F13831203131F140330F600B3
:10189A00F60B4D2C502C080074087504031D562CA9
:1018AA00572C702CC330831203139F050330F600A4
:1018BA00F60B5D2C602C831203139F149F18662C61
:1018CA00672C632C0C131E08F600F7017608F40047
:1018DA007708F500A32C74037504031D752C762C68
:1018EA00892C831203131F08C33904389F0003305D
:1018FA00F600F60B7E2C812C831203139F149F187B
:10190A00872C882C842C672C023074067504031DDE
:10191A008F2C902CA32C831203131F08C339083869
:10192A009F000330F600F60B982C9B2C83120313AE
:10193A009F149F18A12CA22C9E2C672C0800F4003F
:10194A0007307406031DAA2CAB2CAF2C70308316FB
:10195A0003138F0406307406031DB42CB52CBB2C5C
:10196A00831603130F088F3960388F000530740609
:10197A00031DC02CC12CC72C831603130F088F39E3
:10198A0050388F0004307406031DCC2CCD2CD32C78
:10199A00831603130F088F3940388F0003307406FB
:1019AA00031DD82CD92CDF2C831603130F088F396B
:1019BA0030388F0002307406031DE42CE52CEB2C22
:1019CA00831603130F088F3920388F007403031D01
:1019DA00EF2CF02CF62C831603130F088F391038CE
:1019EA008F007408031DFA2CFB2CFF2C8F308316F2
:1019FA0003138F05831603130F1408000030831294
:101A0A000313AB000030AA000030A9000030A80080
:101A1A0023082204210420040319142D152D622DF4
:101A2A00AC01AC0A252D0130F4000310A00DA10D64
:101A3A00A20DA30DF40B1A2D0130F4007408AC07A3
:101A4A00A31F282D292D182D0130F4000310A80DED
:101A5A00A90DAA0DAB0DF40B2B2D23082702031D8C
:101A6A00402D22082602031D402D21082502031DB0
:101A7A00402D20082402031C432D442D532D2008F9
:101A8A00A4022108031C210FA5022208031C220F0D
:101A9A00A6022308031C230FA702281401300310EF
:101AAA00A30CA20CA10CA00CFF3E031D542D013067
:101ABA00AC02031D612D622D292D2B08A3002A08D3
:101ACA00A2002908A1002808A00008000310831218
:101ADA000313680D690D83160313AE002E08031D48
:101AEA00772D782D832D003083120313E9000030FF
:101AFA00E8000030E7000030E600F82D83120313F7
:101B0A006608EA006708EB006808EC006908ED005F
:101B1A001F300310ED0CEC0CEB0CEA0CFF3E031D1E
:101B2A008E2D6A0883160313AD0083120313E81778
:101B3A00FF30E605FF30E705FF30E8050030E9052C
:101B4A00963083160313AE02AE1FAC2DAD2DCB2DEE
:101B5A002E08803A973E0318B32DB42DB52D782D53
:101B6A000130031083120313E90CE80CE70CE60CAE
:101B7A00FF3E031DB62D0130EA006A0883160313DF
:101B8A00AE07031DC92DCA2DB52DE62D20302E0214
:101B9A00031CD02DD12DE12D782D01308312031392
:101BAA00EA000310E60DE70DE80DE90DEA0BD62D64
:101BBA00013083160313AE022E08031DE52DE62D10
:101BCA00D22D2D080319EA2DEB2DF82D83120313BC
:101BDA00E609E709E809E909E60A0319E70A031920
:101BEA00E80A0319E90A08000B1DFC2DFD2D2C2E0D
:101BFA000B116430831203138100831603133D080B
:101C0A00031D082E092E182E83120313881403307D
:101C1A00F1005530F000F00B102EF10B102E83124C
:101C2A00031388102C2E3D03031D1C2E1D2E2C2E53
:101C3A008312031388140530F100EE30F000F00B24
:101C4A00242EF10B242E0000831203138810831212
:101C5A0003138C1D312E322E812E1412141B362E94
:101C6A00372E3B2E941F3A2E3B2E402E1308F90096
:101C7A0014139413141683160313941A452E462E1E
:101C8A005F2E1419492E4A2E5F2E8312031313084E
:101C9A00F900141683160313141C542E552E4F2EB6
:101CAA00831203131308EE00A630F000F00B5B2E2C
:101CBA0000007E2E941A622E632E7E2E141D662E2E
:101CCA00672E7E2E831203131308F900831603135B
:101CDA00141079088312031393001416A630F00027
:101CEA00F00B752E00008316031314187D2E7E2E1A
:101CFA00782E831203138C1173088A00720E8300E4
:101D0A00FE0E7E0E090083120313B9003908031967
:101D1A008F2E902EA42EB41F932E942EA42E31090A
:101D2A00BB003209BC003309BD003409BE00BB0A3E
:101D3A000319BC0A0319BD0A0319BE0AAC2E3408DA
:101D4A00BE003308BD003208BC003108BB003408AD
:101D5A00330432043104031DB32EB42EBD2E0030D9
:101D6A00B4000030B3000030B2000030B100412F9F
:101D7A009630BA00CD2E0130B5003508BA070130C9
:101D8A000310BE0CBD0CBC0CBB0CFF3E031DC52EC4
:101D9A00FE303E05031DD22ED32EC02EEF2E01306B
:101DAA00B5003508BA070130BB0700300318013007
:101DBA00BC07003003180130BD070030031801309A
:101DCA00BE0701300310BE0CBD0CBC0CBB0CFF3EA1
:101DDA00031DE72EFF303E05031DF42EF52ED42EEB
:101DEA00012F0130BA020130B5000310BB0DBC0D42
:101DFA00BD0DBE0DB50BFA2EBD1B042F052F0B2FE3
:101E0A0002303A0203180A2F0B2FF62E3A180E2F19
:101E1A000F2F172FFF30BB05FF30BC057F30BD05E4
:101E2A00FF30BE050310BA0C3A08B500B601B70177
:101E3A00B80118300310B50DB60DB70DB80DFF3E39
:101E4A00031D1F2F3508BB043608BC043708BD0420
:101E5A003808BE0439080319332F342F392FB41F19
:101E6A00372F382F392FBE173E08B4003D08B3006C
:101E7A003C08B2003B08B100080004308316031383
:101E8A003002003003192F0203184C2F4D2FFF2F59
:101E9A002F0883120313B100831603133008831229
:101EAA000313B200B301B40100300A128A1588265E
:101EBA000A128A15831203133408C6003308C500B0
:101ECA003208C4003108C3004430C2007F30C10068
:101EDA00C030C0000030BF000A128A1128250A1239
:101EEA008A15831203134208E0004108DF00400804
:101EFA00DE003F08DD008316031334088312031340
:101F0A00B00083160313330883120313AF0083163A
:101F1A000313320883120313AE0083160313310826
:101F2A0083120313AD000A128A15E5230A128A15D1
:101F3A00831203133008B4002F08B3002E08B2002E
:101F4A002D08B10000300A128A1588260A128A154D
:101F5A00831203133408DC003308DB003208DA008A
:101F6A003108D9000A128A111F200A128A1583120F
:101F7A0003135C08E9005B08E8005A08E7005908FF
:101F8A00E6000A128A156B250A128A1583120313B0
:101F9A00670883160313B0008312031366088316B7
:101FAA000313AF00CF30B50035088312031397052A
:101FBA00831603132F08B50003300310B50DFF3E37
:101FCA00031DE22F0310350D3039B600360883128F
:101FDA0003139704831603133008B6002F08B500BD
:101FEA000310B60CB50C0310B60CB50C35088312E9
:061FFA000313950008002E
:08400000FF3FFF3FFF3FFF3FC0
:04400E00D420FF3F7C
:00000001FF
