:060000000A128A11122809
:10000800FE00030E83120313B5000408B6000A08A5
:10001800B7007F08B8000A128A1122280A128A112A
:100028001528FA01FB01FC01FD0183120313BD0130
:10003800BE01BF0183010A128A11032A0B1D25285C
:1000480026285B287C30F8007D300A128A11DB20D4
:100058000A128A11790883120313BE007808BD00BA
:100068000B11643081007A08031D3B283C284C287A
:100078008814033083120313B4009030B300B30B19
:100088004328B40B432800008312031388105B280D
:100098008814043083120313B400E330B300B30BA5
:1000A8005328B40B532858288312031388100B1CA9
:1000B8005E285F287628861B622863287628861F94
:1000C8006628672863287A0803196B286C286E2825
:1000D800FA0175287A08031D722873287528FA0111
:1000E800FA0A0B108C1D79287A28D0281412141BB0
:1000F8007E287F288328941F82288328882813082D
:10010800FB0014139413141683160313941A8D28E2
:100118008E28AA28141991289228AA288312031332
:100128001308FB008C11141683160313141C9D2846
:100138009E289828831203131308BF00A530831242
:100148000313B300B30BA628A928CD28941AAD2809
:10015800AE28CD28141DB128B228CD288312031348
:100168001308FB008316031314107D08831203136E
:1001780093007C0893001416A53083120313B30070
:10018800B30BC428C728831603131418CC28CD280A
:10019800C728831203138C113808FF0037088A0018
:1001A80036088400350E8300FE0E7E0E0900831289
:1001B8000313A8000A128A114E220A128A110A127F
:1001C8008A1182220A128A110A128A11BF210A127E
:1001D8008A11710883120313AA007008A9000A1271
:1001E8008A11BF210A128A11710883120313AC0005
:1001F8007008AB000A128A11BF210A128A1171080D
:1002080083120313AE007008AD000A128A11BF21D1
:100218000A128A11710883120313B0007008AF0024
:100228000A128A11BF210A128A1171088312031354
:10023800B2007008B100280884002D0880007808F2
:1002480084002F0880002D082B07A0002E08031813
:100258002E0A2C07A1002F082007A2003008031837
:10026800300A2107A30029082207A4002A08031836
:100278002A0A2307A500FF302405A600003025051B
:10028800A70027083206031D4B2926083106031D3F
:100298004E294F2954290130F8000030F900562919
:1002A800F801F901080083120313B9000730390671
:1002B800031D5F29602964297030831603138F0496
:1002C800063083123906031D6A296B2971298316A2
:1002D80003130F088F3960388F00053083123906F1
:1002E800031D772978297E29831603130F088F3970
:1002F80050388F00043083123906031D842985295C
:100308008B29831603130F088F3940388F00033069
:1003180083123906031D91299229982983160313FC
:100328000F088F3930388F00023083123906031DC9
:100338009E299F29A529831603130F088F39203872
:100348008F0083123903031DAA29AB29B12983160B
:1003580003130F088F3910388F0083123908031DD3
:10036800B629B729BB298F30831603138F05831647
:1003780003130F140800F601F701F401F5018312C5
:100388000313081CC829C929C3291330F200F20B2A
:10039800CB29CE2983120313081CD329D429E22997
:1003A8007708F3007608F2000310F20DF30D013020
:1003B8007204F60000307304F700E7290310760D85
:1003C800F600770DF7000818EA29EB29E72901302C
:1003D800F4070318F50A0030F5077508803AFF009E
:1003E80080307F02031DFA2908307402031CFD299E
:1003F800FE29C3297708F1007608F00008000730C5
:100408000A128A1157210A128A110A128A116922BC
:100418000A128A110A128A119F220A128A110A12D2
:100428008A1191220A128A1183120313BF017D08CF
:10043800831203138500033083120313BC000830B2
:10044800BB007630BA00BA0B272ABB0B272ABC0B95
:10045800272A00001B2A0A128A1112288312031362
:10046800B900390883160313930036308312031337
:10047800940080308316031394000130910087158F
:1004880007168B170B17831203138C11831603138C
:100498008C15080083160313081083120313081021
:1004A8003430F100F130F000F00B582AF10B582AE3
:1004B8005D2A8312031308141330F000F00B622A2C
:1004C800652A831603130814080083160317880186
:1004D800890183160313850183120313850183168B
:1004E800031388108312031308108B170B1710308F
:1004F8000A128A1132220A128A110800831203137F
:100508000818872A882A822A081C8B2A8C2A882A73
:1005180008188F2A902A8C2A08008B178B160B1123
:10052800831603138112811107308104643083120A
:1005380003138100080080308316031386008B158F
:0E0548000B1080309600803095008113080063
:08400000FF3FFF3FFF3FFF3FC0
:04400E00D420FF3F7C
:00000001FF
