:060000000A128A110C280F
:10000800FE00030EFC000A08FD000A128A11862869
:100018000A128A110F2883120313A001A101A20159
:10002800A301A401A501A601A701A80183010A1241
:100038008A11C82983120313A90007302906031D52
:10004800262827282B287030831603138F040630A0
:1000580083122906031D31283228382883160313F2
:100068000F088F3960388F00053083122906031D69
:100078003E283F284528831603130F088F39503828
:100088008F00043083122906031D4B284C28522860
:10009800831603130F088F3940388F0003308312FB
:1000A8002906031D582859285F28831603130F08AB
:1000B8008F3930388F00023083122906031D6528D6
:1000C80066286C28831603130F088F3920388F0091
:1000D80083122903031D71287228782883160313B5
:1000E8000F088F3910388F0083122908031D7D28C7
:1000F8007E2882288F30831603138F0583160313F7
:100108000F140800831203138C1D8B288C28E128F8
:100118001412141B902891289528941F9428952828
:100128009A281308A600141394131416831603139D
:10013800941A9F28A028BA281419A328A428BA28F2
:10014800831203131308A6008C11141683160313C5
:10015800141CAF28B028AA28831203131308A80078
:10016800A630FB00FB0BB6280000DE28941ABD2839
:10017800BE28DE28141DC128C228DE2883120313D6
:100188001308A6008316031314100A128A113B21C0
:100198000A128A1183120313270893001416A63033
:1001A800FB00FB0BD5280000831603131418DD2869
:1001B800DE28D828831203138C117D088A007C0E50
:1001C8008300FE0E7E0E0900F501F601F701831289
:1001D80003138E018F01081CF228F328EF28003042
:1001E8000F02653003190E02031CFB28FC280129A5
:1001F8000130A0000030A10036298E018F010818B7
:1002080006290729032900300F02653003190E0259
:10021800031C0F2910291129FC2800300F02333044
:1002280003190E02031C19291A292C297708073CDF
:10023800F200F20A0130F3000030F400262903101E
:10024800F30DF40DF20B23297308F5047408F60472
:100258000130F2007208F70708307702031C3529CD
:100268003629EB287608F1007508F00008000930F7
:10027800FA001E30F900E430F800F80B4129F90BB8
:100288004129FA0B412900000A128A1100220A1298
:100298008A110A128A118A210A128A117008831295
:1002A8000313A4002403031D5A295B2989290A1270
:1002B8008A11E8200A128A11700883120313A50014
:1002C8000A128A11E8200A128A117008831203138D
:1002D800A5000A128A11E8200A128A1170088312EE
:1002E8000313A7000A128A11E8200A128A1170085B
:1002F80083120313A5000A128A11E8200A128A1130
:10030800700883120313A50010100800831203134A
:10031800A001A1018E018F011014081894299529B4
:100328009E2900300F02643003190E02031C9D2918
:100338009E29912900300F02643003190E02031C14
:10034800A629A729AA29F001F101C7298E018F0141
:10035800081CAF29B029B92900300F0264300319ED
:100368000E02031CB829B929AC2900300F026430E9
:1003780003190E02031CC129C229C329A729013068
:10038800F0000030F100080007300A128A111E2020
:100398000A128A110A128A111B220A128A1183125E
:1003A8000313A801823083120313AB00DD30AA00C7
:1003B800AA0BDC29AB0BDC29D6290A128A110C28D6
:1003C80083120313A90029088316031393003630F8
:1003D80083120313940080308316031394000130B2
:1003E8009100871507168B170B17831203138C11AF
:1003F800831603138C150800831603130810831241
:10040800031308104130F100EE30F000F00B0A2A17
:10041800F10B0A2A00008312031308141030F000AD
:10042800F00B142A0000831603130814080083161F
:100438000317880189018312031390101008CF391C
:10044800103890001010A0300A128A11E4210A1204
:040458008A110800FD
:08400000FF3FFF3FFF3FFF3FC0
:04400E00D420FF3F7C
:00000001FF
