:060000000A128A110C280F
:10000800FE00030EF2000A08F3000A128A111628ED
:100018000A128A110F28F501F601F70183010A1265
:100028008A1113290B1D19281A283E280B11643030
:100038008312031381007608031D232824283128FE
:1000480088140330F1005530F000F00B2928F10B2B
:1000580029288312031388103E2888140530F100DC
:10006800AB30F000F00B3628F10B36283B28831212
:1000780003138810831203138C1D432844289328E4
:100088001412141B482849284D28941F4C284D2821
:1000980052281308F5001413941314168316031327
:1000A800941A57285828712814195B285C28712835
:1000B800831203131308F500141683160313141C74
:1000C800662867286128831203131308F600A630F0
:1000D800F000F00B6D2800009028941A74287528F9
:1000E8009028141D78287928902883120313130860
:1000F800F500831603131410750883120313930075
:100108001416A630F000F00B87280000831603139E
:1001180014188F2890288A28831203138C117308C7
:100128008A00720E8300FE0E7E0E0900F40007306E
:100138007406031DA028A128A52870308316031370
:100148008F0406307406031DAA28AB28B12883162D
:1001580003130F088F3960388F0005307406031DAC
:10016800B628B728BD28831603130F088F395038CF
:100178008F0004307406031DC228C328C9288316BB
:1001880003130F088F3940388F0003307406031D9E
:10019800CE28CF28D528831603130F088F39303877
:1001A8008F0002307406031DDA28DB28E128831645
:1001B80003130F088F3920388F007403031DE528B7
:1001C800E628EC28831603130F088F3910388F00A0
:1001D8007408031DF028F128F5288F3083160313BF
:1001E8008F05831603130F140800F4007408831690
:1001F8000313930036308312031394008030831660
:100208000313940001309100871507168B170B17FD
:10021800831203138C11831603138C1508000730FF
:100228000A128A119A200A128A110A128A1128219E
:100238000A128A110A128A1139210A128A11F7013F
:1002480024290A128A110C288316031788018901A8
:10025800831603138810831203138810B0300A1210
:100268008A11F9200A128A1108008B178B160B11B4
:10027800831603138112011281110730810464303F
:0802880083120313810008003A
:08400000FF3FFF3FFF3FFF3FC0
:04400E00D420FF3F7C
:00000001FF
