:100000000A128A11EB2F00308A000408840A820742
:100010000034203420342034203456340034533417
:1000200031343A34203400343A34203420343A34F1
:0200300000349A
:1002F4000A128A11AC210A128A11831603131114EB
:1003040008000A128A11AC210A128A1183160313F7
:10031400111508000A128A11AC210A128A118316D7
:100324000313911408000A128A11AC210A128A11CB
:100334007008831203139300080000300A128A1114
:10034400CE210A128A1101300A128A11CE210A1210
:100354008A110800831603131419B129B229AC2990
:1003640011081F39031DB729B829AC290800F30067
:10037400F201731CBE29BF29C3297008F10071085A
:10038400F2070310F00D0310F30C7308031DCB29BF
:10039400CC29BB2972080800F30083120313081147
:1003A40073080A128A1103220A128A118312031390
:1003B40088150B30F2006230F100F10BDF29F20BEB
:1003C400DF2900008312031388110800F80078085D
:1003D4000F39F5007808F40004300310F40CFF3EE4
:1003E400031DEF2974080F39F6000A30F00076086F
:1003F4000A128A11B9210A128A117507F7007708BF
:100404000800F000701C072A082A0C2A8312031320
:1004140008160F2A831203130812F01C122A132A37
:10042400152A8816162A8812701D192A1A2A1C2AB7
:1004340008171D2A0813F01D202A212A232A8817A9
:10044400242A88130800F700F501F6013C2A7508F0
:10045400770784000A128A1103200A128A110A12E9
:100464008A11A5220A128A110130F5070318F60A27
:100474000030F6077508770784000A128A110320F2
:100484000A128A11003A031D482A492A292A080017
:1004940083160317880189018316031385018312C8
:1004A4000313850183160313880183120313880140
:1004B400F830831603138600F83083120313860082
:1004C400F83083160313950081130030831203134D
:1004D400B2000130B1008630B000A030AF000A1283
:1004E4008A110F230A128A1108000A128A11AC21F8
:1004F4000A128A118316031391150A128A11AC2168
:100504000A128A11831203131308F200F30172080A
:10051400F4007308F5000A128A11AC210A128A1138
:1005240070037104031D972A982A9C2A83160313C7
:1005340091129F2A83160313911611167508F10060
:100544007408F0000800F40074080F39F20074080D
:10055400F039F3008312031308157308F100043013
:100564000310F10CFF3E031DB22A71080A128A110E
:1005740003220A128A118312031388151A30F10018
:10058400F10BC22A000083120313881172080A12A5
:100594008A1103220A128A118312031388151A304E
:1005A400F100F10BD32A0000831203138811080011
:1005B400F5000A128A117A210A128A11D030F00049
:1005C4000030F1000A128A1195210A128A110030B2
:1005D400F000F1000A128A1195210A128A11750895
:1005E400F300F4017308F0007408F1000A128A1190
:1005F40095210A128A117208F300F4017308F000BD
:100604007408F1000A128A1195210A128A110A1239
:100614008A1183210A128A110800283083120313D5
:100624009400831603139101831203132F08B3005C
:100634003008B4003108B5003208B60002300310A7
:10064400B30DB40DB50DB60DFF3E031D212B3608B9
:10065400F3003508F2003408F1003308F0000030EC
:10066400F7007A30F6001230F5000030F4000A1278
:100674008A11E4250A128A117008FF3E83160313B7
:1006840093009401871507160800FB000A128A11CB
:100694007A210A128A11D030F0000030F1000A12D7
:1006A4008A1195210A128A117B08F900FA01790846
:1006B400F0007A08F1000A128A1195210A128A11AF
:1006C4000A128A118C210A128A11D130F0000030EA
:1006D400F1000A128A1195210A128A110030F000E1
:1006E400F1000A128A1177220A128A117008FC009A
:1006F4000A128A1183210A128A117C080A128A11A9
:10070400E8210A128A11FC007C080800F60076032E
:10071400031D8D2B8E2BAB2B74087F3EF9007908BB
:10072400F50004300310F50CFF3E031D942B7508EF
:10073400F70079080F39F80077080A128A11CE21D8
:100744000A128A1178080A128A11CE210A128A1111
:10075400CD2B02307606031DB02BB12BCD2B7408A4
:10076400BF3EF9007908F50004300310F50CFF3E94
:10077400031DB72B7508F70079080F39F8007708BF
:100784000A128A11CE210A128A1178080A128A11D1
:10079400CE210A128A11080083120313B40032080E
:1007A400013EF40033080A128A1188230A128A11BE
:1007B4000030F900FA00831203133408FB000A1214
:1007C4008A117F250A128A110A128A111A240A121E
:1007D4008A1183120313AD002D080A128A11A5226F
:1007E4000A128A11831203133208F40033080A121E
:1007F4008A1188230A128A110130F9000030FA00A4
:10080400831203133408FB000A128A117F250A128B
:100814008A110A128A111A240A128A1183120313E2
:10082400AC002C080A128A11A5220A128A110800A7
:10083400F0007008031D1F2C202C222C3030692C52
:100844007003031D262C272C292C3130692C0230EF
:100854007006031D2E2C2F2C312C3230692C0330C2
:100864007006031D362C372C392C3330692C043098
:100874007006031D3E2C3F2C412C3430692C05306E
:100884007006031D462C472C492C3530692C063044
:100894007006031D4E2C4F2C512C3630692C07301A
:1008A4007006031D562C572C592C3730692C0830F0
:1008B4007006031D5E2C5F2C612C3830692C0930C6
:1008C4007006031D662C672C692C3930692C0800CE
:1008D400F601F31F6E2C6F2C762CF209F309F20A41
:1008E4000319F30AF601F60AF11F792C7A2C7F2CEE
:1008F400F009F109F00A0319F10A700871040319E7
:10090400842C852CB42CF501F50A932C01300310AA
:10091400F00DF10DFF3E031D892C0130F400740825
:10092400F507F11F962C972C882C71087302031D70
:100934009D2C70087202031CA02CA12CA72C7008FB
:10094400F2027108031CF303F30201300310F10CEB
:10095400F00CFF3E031DA82C0130F502031DB32C3F
:10096400B42C972C76080319B82CB92CBE2CF20998
:10097400F309F20A0319F30A7308F1007208F0008C
:10098400080000300A128A1103220A128A11343034
:10099400F500F130F400F40BCD2CF50BCD2CD22C5A
:1009A40003300A128A11CE210A128A110D30F50081
:1009B400FB30F400F40BDC2CF50BDC2CE12C0330C5
:1009C4000A128A11CE210A128A111D30F5009130C3
:1009D400F400F40BEB2CF50BEB2C03300A128A1108
:1009E400CE210A128A1102300A128A11CE210A1269
:1009F4008A1102300A128A11CE210A128A11083091
:100A04000A128A11CE210A128A1100300A128A119E
:100A1400CE210A128A110C300A128A11CE210A122E
:100A24008A1100300A128A11CE210A128A11063064
:100A34000A128A11CE210A128A110800F000073026
:100A44007006031D262D272D2B2D703083160313BE
:100A54008F0406307006031D302D312D372D83167B
:100A640003130F088F3960388F0005307006031D9B
:100A74003C2D3D2D432D831603130F088F39503819
:100A84008F0004307006031D482D492D4F2D831609
:100A940003130F088F3940388F0003307006031D8D
:100AA400542D552D5B2D831603130F088F393038C1
:100AB4008F0002307006031D602D612D672D831693
:100AC40003130F088F3920388F007003031D6B2D1B
:100AD4006C2D722D831603130F088F3910388F0075
:100AE4007008031D762D772D7B2D8F30831603130D
:100AF4008F05831603130F1408006430F0000030D0
:100B0400F1007B08FC00FD017C08F2007D08F30085
:100B14000A128A114A260A128A11700883120313D0
:100B2400AF006430F0000030F1007B08FC00FD01F0
:100B34007C08F2007D08F3000A128A116A240A1262
:100B44008A11700883120313B1000A30F0000030D8
:100B5400F1003108FC00FD017C08F2007D08F3007F
:100B64000A128A116A240A128A1170088312031362
:100B7400B000023079067A04031DC12DC22DC42DA4
:100B84002F08E32D79037A04031DC92DCA2DDC2D0A
:100B94000A30F0000030F1003108FC00FD017C084F
:100BA400F2007D08F3000A128A114A260A128A11F9
:100BB4007008E32D79087A04031DE12DE22DE32D5D
:100BC400300808000030FC000030FB000030FA0060
:100BD4000030F90073087204710470040319F32DD2
:100BE400F42D412EFD01FD0A042E0130F8000310FE
:100BF400F00DF10DF20DF30DF80BF92D0130F800A5
:100C04007808FD07F31F072E082EF72D0130F80092
:100C14000310F90DFA0DFB0DFC0DF80B0A2E7308E9
:100C24007702031D1F2E72087602031D1F2E710802
:100C34007502031D1F2E70087402031C222E232E1E
:100C4400322E7008F4027108031C710FF502720849
:100C5400031C720FF6027308031C730FF702791456
:100C640001300310F30CF20CF10CF00CFF3E031DE9
:100C7400332E0130FD02031D402E412E082E7C0828
:100C8400F3007B08F2007A08F1007908F00008000C
:100C9400F601F11F4E2E4F2E562EF009F109F00ADF
:100CA4000319F10AF601F60AF31F592E5A2E632E80
:100CB400F209F309F20A0319F30A0130F400740883
:100CC400F606F701F8017008710403196A2E6B2EF9
:100CD400A22EF501F50A792E01300310F00DF10D65
:100CE400FF3E031D6F2E0130F4007408F507F11F59
:100CF4007C2E7D2E6E2E01300310F70DF80DFF3E75
:100D0400031D7E2E71087302031D8A2E7008720261
:100D1400031C8D2E8E2E952E7008F2027108031C72
:100D2400F303F302771401300310F10CF00CFF3ECF
:100D3400031D962E0130F502031DA12EA22E7D2E39
:100D440076080319A62EA72EAC2EF709F809F70A80
:100D54000319F80A7808F1007708F0000800073052
:100D64000A128A1120250A128A110A128A114A22A9
:100D74000A128A110A128A11C3240A128A110A1247
:100D84008A119F210A128A110230F40001300A12DA
:100D94008A1188230A128A1107300A128A1125221D
:100DA4000A128A11F401F40A02300A128A11882301
:100DB4000A128A1101300A128A1125220A128A1192
:100DC4000A30F40001300A128A1188230A128A11A7
:100DD4000C300A128A1125220A128A118312031373
:100DE400A701AB01A901F20100300A128A11DA222B
:100DF4000A128A118312031327088500F2010030B6
:100E04000A128A11DA220A128A1100300A128A118D
:100E140047230A128A1183120313AB000E30B20067
:100E2400B301B30A2B080A128A11CE230A128A11BB
:100E340001300A128A1147230A128A1183120313FA
:100E4400A9000B30B200B301B30A29080A128A11AF
:100E5400CE230A128A1183120313061A322F332F58
:100E6400FC2E343083120313B800F130B700B70BF3
:100E7400392FB80B392FE12F4E3083120313B800EA
:100E8400EA30B700B70B442FB80B442F00000E30E4
:100E940083120313B200B301B30A2B080A128A1196
:100EA400CE230A128A110B3083120313B200B3014A
:100EB400B30A29080A128A11CE230A128A1183124C
:100EC4000313861B662F672F7E2F34308312031380
:100ED400B800F130B700B70B6D2FB80B6D2F83122C
:100EE40003132708031D772F782F7D2F0130B700B8
:100EF4003708A7077E2FA701061B812F822FB12F4A
:100F0400823083120313B800DD30B700B70B882F8B
:100F1400B80B882F831203132708031D922F932FD6
:100F2400A02F3B302B020318982F992F9E2F0130AE
:100F3400B7003708AB07B12FAB01B12F2703031D4F
:100F4400A42FA52FB12F3B3029020318AA2FAB2FB2
:100F5400B02F0130B7003708A907B12FA901861AAD
:100F6400B42FB52FE12F823083120313B800DD3084
:100F7400B700B70BBB2FB80BBB2F83120313270883
:100F8400031DC52FC62FD12F2B080319CA2FCB2F12
:100F9400CE2F0130AB02E12F3B30AB00E12F270312
:100FA400031DD52FD62FE12F29080319DA2FDB2FA4
:100FB400DE2F0130A902E12F3B30A900E12F83127B
:100FC40003138619E62FE72F3E2FFC2E0A128A11EF
:100FD400002883120313A001A101A201A301A4010B
:100FE400A501A601A701A801A901AA01AB01AC01B1
:0C0FF400AD01AE0183010A128A11B12E7A
:08400000FF3FFF3FFF3FFF3FC0
:04400E00D420FF3F7C
:00000001FF
