:100000000A128A11EB2F00308A000408840A820742
:0E001000003453343A34203420343A3400346F
:10024C000A128A1158210A128A11831603131114E7
:10025C0008000A128A1158210A128A1183160313F4
:10026C00111508000A128A1158210A128A118316D4
:10027C000313911408000A128A1158210A128A11C8
:10028C007008831203139300080000300A128A11BD
:10029C007A210A128A1101300A128A117A210A1261
:1002AC008A1108008316031314195D295E29582935
:1002BC0011081F39031D6329642958290800F3000C
:1002CC00F201731C6A296B296F297008F1007108FF
:1002DC00F2070310F00D0310F30C7308031D7729BC
:1002EC007829672972080800F30083120313081198
:1002FC0073080A128A11AF210A128A11831203138E
:10030C0088150B30F2006230F100F10B8B29F20BE7
:10031C008B2900008312031388110800F800780859
:10032C000F39F5007808F40004300310F40CFF3E8C
:10033C00031D9B2974080F39F6000A30F00076086B
:10034C000A128A1165210A128A117507F7007708BB
:10035C000800F000701CB329B429B82983120313C8
:10036C000816BB29831203130812F01CBE29BF29DF
:10037C00C1298816C2298812701DC529C629C82909
:10038C000817C9290813F01DCC29CD29CF298817A6
:10039C00D02988130800F700F501F601E829750843
:1003AC00770784000A128A1103200A128A110A1292
:1003BC008A1151220A128A110130F5070318F60A24
:1003CC000030F6077508770784000A128A1103209B
:1003DC000A128A11003A031DF429F529D5290800BF
:1003EC008316031788018901831603138501831271
:1003FC0003138501831603138801831203138801E9
:10040C00FC30831603138600FC3083120313860022
:10041C00FC308316031395008113003083120313F1
:10042C00B2000130B1008630B000A030AF000A122B
:10043C008A11BB220A128A1108000A128A11582149
:10044C000A128A118316031391150A128A11582164
:10045C000A128A11831203131308F200F3017208B3
:10046C00F4007308F5000A128A1158210A128A1135
:10047C0070037104031D432A442A482A831603136C
:10048C0091124B2A83160313911611167508F1005D
:10049C007408F0000800F40074080F39F2007408B6
:1004AC00F039F3008312031308157308F1000430BC
:1004BC000310F10CFF3E031D5E2A71080A128A110B
:1004CC00AF210A128A118312031388151A30F10016
:1004DC00F10B6E2A000083120313881172080A12A2
:1004EC008A11AF210A128A118312031388151A304C
:1004FC00F100F10B7F2A000083120313881108000E
:10050C00F5000A128A1126210A128A11D030F00045
:10051C000030F1000A128A1141210A128A110030AE
:10052C00F000F1000A128A1141210A128A11750891
:10053C00F300F4017308F0007408F1000A128A1138
:10054C0041210A128A117208F300F4017308F000B9
:10055C007408F1000A128A1141210A128A110A1236
:10056C008A112F210A128A110800283083120313D2
:10057C009400831603139101831203132F08B30005
:10058C003008B4003108B5003208B6000230031050
:10059C00B30DB40DB50DB60DFF3E031DCD2A3608B7
:1005AC00F3003508F2003408F1003308F000003095
:1005BC00F7007A30F6001230F5000030F4000A1221
:1005CC008A1190250A128A117008FF3E83160313B4
:1005DC0093009401871507160800FB000A128A1174
:1005EC0026210A128A11D030F0000030F1000A12D4
:1005FC008A1141210A128A117B08F900FA01790843
:10060C00F0007A08F1000A128A1141210A128A11AB
:10061C000A128A1138210A128A11D130F0000030E6
:10062C00F1000A128A1141210A128A110030F000DD
:10063C00F1000A128A1123220A128A117008FC0096
:10064C000A128A112F210A128A117C080A128A11A5
:10065C0094210A128A11FC007C080800F60076032B
:10066C00031D392B3A2B572B74087F3EF900790860
:10067C00F50004300310F50CFF3E031D402B7508EC
:10068C00F70079080F39F80077080A128A117A21D5
:10069C000A128A1178080A128A117A210A128A110E
:1006AC00792B02307606031D5C2B5D2B792B74089D
:1006BC00BF3EF9007908F50004300310F50CFF3E3D
:1006CC00031D632B7508F70079080F39F8007708BC
:1006DC000A128A117A210A128A1178080A128A11CE
:1006EC007A210A128A11080083120313B40032080B
:1006FC00013EF40033080A128A1134230A128A11BB
:10070C000030F900FA00831203133408FB000A12BC
:10071C008A112B250A128A110A128A11C6230A126F
:10072C008A1183120313AD002D080A128A1151226B
:10073C000A128A11831203133208F40033080A12C6
:10074C008A1134230A128A110130F9000030FA00A0
:10075C00831203133408FB000A128A112B250A1288
:10076C008A110A128A11C6230A128A1183120313E0
:10077C00AC002C080A128A1151220A128A110800A4
:10078C00F0007008031DCB2BCC2BCE2B3030152C4E
:10079C007003031DD22BD32BD52B3130152C0230EB
:1007AC007006031DDA2BDB2BDD2B3230152C0330BE
:1007BC007006031DE22BE32BE52B3330152C043094
:1007CC007006031DEA2BEB2BED2B3430152C05306A
:1007DC007006031DF22BF32BF52B3530152C063040
:1007EC007006031DFA2BFB2BFD2B3630152C073016
:1007FC007006031D022C032C052C3730152C0830E9
:10080C007006031D0A2C0B2C0D2C3830152C0930BE
:10081C007006031D122C132C152C3930152C0800C6
:10082C00F601F31F1A2C1B2C222CF209F309F20AE5
:10083C000319F30AF601F60AF11F252C262C2B2C92
:10084C00F009F109F00A0319F10A7008710403198F
:10085C00302C312C602CF501F50A3F2C01300310A3
:10086C00F00DF10DFF3E031D352C0130F400740822
:10087C00F507F11F422C432C342C71087302031D15
:10088C00492C70087202031C4C2C4D2C532C7008F4
:10089C00F2027108031CF303F30201300310F10C94
:1008AC00F00CFF3E031D542C0130F502031D5F2C90
:1008BC00602C432C76080319642C652C6A2CF209E5
:1008CC00F309F20A0319F30A7308F1007208F00035
:1008DC00080000300A128A11AF210A128A11343032
:1008EC00F500F130F400F40B792CF50B792C7E2CFF
:1008FC0003300A128A117A210A128A110D30F5007E
:10090C00FB30F400F40B882CF50B882C8D2C033069
:10091C000A128A117A210A128A111D30F5009130BF
:10092C00F400F40B972CF50B972C03300A128A1158
:10093C007A210A128A1102300A128A117A210A12B9
:10094C008A1102300A128A117A210A128A1108308D
:10095C000A128A117A210A128A1100300A128A119B
:10096C007A210A128A110C300A128A117A210A127F
:10097C008A1100300A128A117A210A128A11063061
:10098C000A128A117A210A128A110800F000073023
:10099C007006031DD22CD32CD72C70308316031366
:1009AC008F0406307006031DDC2CDD2CE32C831623
:1009BC0003130F088F3960388F0005307006031D44
:1009CC00E82CE92CEF2C831603130F088F395038C1
:1009DC008F0004307006031DF42CF52CFB2C8316B1
:1009EC0003130F088F3940388F0003307006031D36
:1009FC00002D012D072D831603130F088F39303866
:100A0C008F0002307006031D0C2D0D2D132D831637
:100A1C0003130F088F3920388F007003031D172D17
:100A2C00182D1E2D831603130F088F3910388F00C5
:100A3C007008031D222D232D272D8F3083160313B1
:100A4C008F05831603130F1408006430F000003078
:100A5C00F1007B08FC00FD017C08F2007D08F3002E
:100A6C000A128A11F6250A128A11700883120313CE
:100A7C00AF006430F0000030F1007B08FC00FD0199
:100A8C007C08F2007D08F3000A128A1116240A125F
:100A9C008A11700883120313B1000A30F000003081
:100AAC00F1003108FC00FD017C08F2007D08F30028
:100ABC000A128A1116240A128A117008831203135F
:100ACC00B000023079067A04031D6D2D6E2D702D49
:100ADC002F088F2D79037A04031D752D762D882D03
:100AEC000A30F0000030F1003108FC00FD017C08F8
:100AFC00F2007D08F3000A128A11F6250A128A11F7
:100B0C0070088F2D79087A04031D8D2D8E2D8F2D55
:100B1C00300808000030FC000030FB000030FA0008
:100B2C000030F900730872047104700403199F2DCE
:100B3C00A02DED2DFD01FD0AB02D0130F8000310A4
:100B4C00F00DF10DF20DF30DF80BA52D0130F800A1
:100B5C007808FD07F31FB32DB42DA32D0130F80039
:100B6C000310F90DFA0DFB0DFC0DF80BB62D7308E7
:100B7C007702031DCB2D72087602031DCB2D710855
:100B8C007502031DCB2D70087402031CCE2DCF2DC6
:100B9C00DE2D7008F4027108031C710FF502720847
:100BAC00031C720FF6027308031C730FF7027914FF
:100BBC0001300310F30CF20CF10CF00CFF3E031D92
:100BCC00DF2D0130FD02031DEC2DED2DB42D7C0825
:100BDC00F3007B08F2007A08F1007908F0000800B5
:100BEC00F601F11FFA2DFB2D022EF009F109F00A86
:100BFC000319F10AF601F60AF31F052E062E0F2E25
:100C0C00F209F309F20A0319F30A0130F40074082B
:100C1C00F606F701F801700871040319162E172E49
:100C2C004E2EF501F50A252E01300310F00DF10DB5
:100C3C00FF3E031D1B2E0130F4007408F507F11F55
:100C4C00282E292E1A2E01300310F70DF80DFF3E19
:100C5C00031D2A2E71087302031D362E70087202B2
:100C6C00031C392E3A2E412E7008F2027108031C17
:100C7C00F303F302771401300310F10CF00CFF3E78
:100C8C00031D422E0130F502031D4D2E4E2E292E32
:100C9C0076080319522E532E582EF709F809F70A25
:100CAC000319F80A7808F1007708F00008000730FB
:100CBC000A128A11CC240A128A110A128A11F621FC
:100CCC000A128A110A128A116F240A128A110A1244
:100CDC008A114B210A128A110D30F40001300A12CC
:100CEC008A1134230A128A113A300A128A115122BB
:100CFC000A128A110930F40002300A128A113423C4
:100D0C000A128A1101300A128A11D1210A128A118F
:100D1C0083120313A701AB01A901F20100300A12DF
:100D2C008A1186220A128A1183120313270885005E
:100D3C00F20100300A128A1186220A128A1100303E
:100D4C000A128A11F3220A128A1183120313AB00BE
:100D5C000E30B200B301B30A2B080A128A117A239F
:100D6C000A128A1101300A128A11F3220A128A110C
:100D7C0083120313A9000B30B200B301B30A290884
:100D8C000A128A117A230A128A1183120313061A81
:100D9C00D02ED12E9A2E343083120313B800F1309A
:100DAC00B700B70BD72EB80BD72E7F2F4E30831230
:100DBC000313B800EA30B700B70BE22EB80BE22EE3
:100DCC0000000E3083120313B200B301B30A2B08D8
:100DDC000A128A117A230A128A110B308312031316
:100DEC00B200B301B30A29080A128A117A230A1233
:100DFC008A1183120313861B042F052F1C2F3430EA
:100E0C0083120313B800F130B700B70B0B2FB80BDC
:100E1C000B2F831203132708031D152F162F1B2FBF
:100E2C000130B7003708A7071C2FA701061B1F2F7F
:100E3C00202F4F2F823083120313B800DD30B70000
:100E4C00B70B262FB80B262F831203132708031D6D
:100E5C00302F312F3E2F3B302B020318362F372FDC
:100E6C003C2F0130B7003708AB074F2FAB014F2F8A
:100E7C002703031D422F432F4F2F3B30290203180A
:100E8C00482F492F4E2F0130B7003708A9074F2F95
:100E9C00A901861A522F532F7F2F823083120313EE
:100EAC00B800DD30B700B70B592FB80B592F831290
:100EBC0003132708031D632F642F6F2F2B080319AF
:100ECC00682F692F6C2F0130AB027F2F3B30AB00AA
:100EDC007F2F2703031D732F742F7F2F29080319CE
:100EEC00782F792F7C2F0130A9027F2F3B30A9005E
:100EFC007F2F831203138619842F852FDC2EF2018A
:100F0C0000300A128A1186220A128A110E308312BC
:100F1C000313B2000230B3002B080A128A117A2391
:100F2C000A128A110B3083120313B2000230B30081
:100F3C0029080A128A117A230A128A11CD2F00303D
:100F4C000A128A11F3220A128A1183120313AA00BD
:100F5C0001300A128A11F3220A128A118312031326
:100F6C00A8000E30B200B301B30A2A080A128A1183
:100F7C007A230A128A110B3083120313B200B301C5
:100F8C00B30A28080A128A117A230A128A118312C8
:100F9C000313B901B90A2B082A06031DD62FD72F24
:100FAC00DE2F29082806031DDC2FDD2FDE2FB901CB
:100FBC00060CB700370C01393905031DE62FE72F56
:100FCC00A52F9A2E0A128A11002883120313A0014E
:100FDC00A101A201A301A401A501A601A701A801D9
:100FEC00A901AA01AB01AC01AD01AE0183010A124A
:040FFC008A115D2ECB
:08400000FF3FFF3FFF3FFF3FC0
:04400E00D420FF3F7C
:00000001FF
