:100000000A128A11F32F00308A000408840A82073A
:100010000034203420342034203456340034533417
:1000200031343A34203400343A34203420343A34F1
:0200300000349A
:1002800064008001840A040603190034040641292D
:100290000A128A117A210A128A1183160313111481
:1002A00008000A128A117A210A128A11831603138E
:1002B000111508000A128A117A210A128A1183166E
:1002C0000313911408000A128A117A210A128A1162
:1002D0007008831203139300080000300A128A1179
:1002E0009C210A128A1101300A128A119C210A12D9
:1002F0008A1108008316031314197F2980297A298B
:1003000011081F39031D852986297A290800F30061
:10031000F201731C8C298D2991297008F100710854
:10032000F2070310F00D0310F30C7308031D992955
:100330009A29892972080800F3008312031308110F
:1003400073080A128A11D1210A128A118312031327
:1003500088150B30F2006230F100F10BAD29F20B81
:10036000AD2900008312031388110800F8007808F3
:100370000F39F5007808F40004300310F40CFF3E48
:10038000031DBD2974080F39F6000A30F000760805
:100390000A128A1187210A128A117507F700770855
:1003A0000800F000701CD529D629DA29831203131E
:1003B0000816DD29831203130812F01CE029E12935
:1003C000E3298816E4298812701DE729E829EA291B
:1003D0000817EB290813F01DEE29EF29F1298817DA
:1003E000F22988130800F700F501F6010A2A7508BA
:1003F000770784000A128A1103200A128A110A124E
:100400008A11A6220A128A110130F5070318F60A8A
:100410000030F6077508770784000A128A11032056
:100420000A128A11003A031D162A172AF729080012
:10043000831603178801890183160313850183122C
:1004400003138501831603138801831203138801A4
:10045000F030831603138600F030831203138600F6
:10046000F0308316031395008113003083120313B9
:10047000BA000130B9008630B800A030B7000A12C7
:100480008A1110230A128A1108000A128A117A218D
:100490000A128A118316031391150A128A117A21FE
:1004A0000A128A11831203131308F200F30172086F
:1004B000F4007308F5000A128A117A210A128A11CF
:1004C00070037104031D652A662A6A2A83160313C2
:1004D00091126D2A83160313911611167508F100F7
:1004E0007408F0000800FC000A30F0000030F10051
:1004F0007C08F900FA017908F2007A08F3000A1280
:100500008A114B260A128A117008FD007D08F90035
:1005100003300310F90DFF3E031D892A0310790DE6
:10052000FD000A30F0000030F1007C08F900FA010B
:100530007908F2007A08F3000A128A116B240A1271
:100540008A117008FB007B087D070800F40074081E
:100550000F39F2007408F039F30083120313081501
:100560007308F10004300310F10CFF3E031DB32AA1
:1005700071080A128A11D1210A128A1183120313F7
:1005800088151A30F100F10BC32A000083120313FF
:10059000881172080A128A11D1210A128A11831253
:1005A000031388151A30F100F10BD42A00008312CE
:1005B000031388110800F5000A128A1148210A1253
:1005C0008A11D030F0000030F1000A128A11632144
:1005D0000A128A110030F000F1000A128A11632118
:1005E0000A128A117508F300F4017308F000740808
:1005F000F1000A128A1163210A128A117208F300AB
:10060000F4017308F0007408F1000A128A116321E2
:100610000A128A110A128A1151210A128A1108003B
:10062000283083120313940083160313910183125D
:1006300003133708BB003808BC003908BD003A086E
:10064000BE0002300310BB0DBC0DBD0DBE0DFF3E44
:10065000031D222B3E08F3003D08F2003C08F10088
:100660003B08F0000030F7007A30F6001230F50059
:100670000030F4000A128A11E5250A128A11700866
:10068000FF3E831603139300940187150716080095
:10069000FB000A128A1148210A128A11D030F00098
:1006A0000030F1000A128A1163210A128A117B08B4
:1006B000F900FA017908F0007A08F1000A128A11AB
:1006C00063210A128A110A128A115A210A128A1106
:1006D000D130F0000030F1000A128A1163210A12B1
:1006E0008A110030F000F1000A128A1145220A1224
:1006F0008A117008FC000A128A1151210A128A110B
:100700007C080A128A11B6210A128A11FC007C08A0
:100710000800F6007603031D8E2B8F2BAC2B74087C
:100720007F3EF9007908F50004300310F50CFF3E18
:10073000031D952B7508F70079080F39F800770825
:100740000A128A119C210A128A1178080A128A1147
:100750009C210A128A11CE2B02307606031DB12B82
:10076000B22BCE2B7408BF3EF9007908F500043097
:100770000310F50CFF3E031DB82B7508F700790830
:100780000F39F80077080A128A119C210A128A117F
:1007900078080A128A119C210A128A110800831211
:1007A0000313BC003A08013EF4003B080A128A1108
:1007B00089230A128A110030F900FA008312031308
:1007C0003C08FB000A128A1180250A128A110A12BB
:1007D0008A111B240A128A1183120313B5003508EB
:1007E0000A128A11A6220A128A11831203133A08E6
:1007F000F4003B080A128A1189230A128A11013077
:10080000F9000030FA00831203133C08FB000A12BF
:100810008A1180250A128A110A128A111B240A12CF
:100820008A1183120313B40034080A128A11A62213
:100830000A128A110800F0007008031D202C212CD8
:10084000232C30306A2C7003031D272C282C2A2CD3
:1008500031306A2C02307006031D2F2C302C322CC4
:1008600032306A2C03307006031D372C382C3A2C9A
:1008700033306A2C04307006031D3F2C402C422C70
:1008800034306A2C05307006031D472C482C4A2C46
:1008900035306A2C06307006031D4F2C502C522C1C
:1008A00036306A2C07307006031D572C582C5A2CF2
:1008B00037306A2C08307006031D5F2C602C622CC8
:1008C00038306A2C09307006031D672C682C6A2C9E
:1008D00039306A2C0800F601F31F6F2C702C772C2E
:1008E000F209F309F20A0319F30AF601F60AF11FF5
:1008F0007A2C7B2C802CF009F109F00A0319F10AFB
:10090000700871040319852C862CB52CF501F50AA5
:10091000942C01300310F00DF10DFF3E031D8A2CC5
:100920000130F4007408F507F11F972C982C892CDE
:1009300071087302031D9E2C70087202031CA12C07
:10094000A22CA82C7008F2027108031CF303F30216
:1009500001300310F10CF00CFF3E031DA92C0130F7
:10096000F502031DB42CB52C982C76080319B92C6C
:10097000BA2CBF2CF209F309F20A0319F30A73081F
:10098000F1007208F000080000300A128A11D1212B
:100990000A128A113430F500F130F400F40BCE2C39
:1009A000F50BCE2CD32C03300A128A119C210A128B
:1009B0008A110D30F500FB30F400F40BDD2CF50B43
:1009C000DD2CE22C03300A128A119C210A128A11B2
:1009D0001D30F5009130F400F40BEC2CF50BEC2CF1
:1009E00003300A128A119C210A128A1102300A125B
:1009F0008A119C210A128A1102300A128A119C2142
:100A00000A128A1108300A128A119C210A128A11CC
:100A100000300A128A119C210A128A110C300A1223
:100A20008A119C210A128A1100300A128A119C2113
:100A30000A128A1106300A128A119C210A128A119E
:100A40000800F00007307006031D272D282D2C2DDF
:100A50007030831603138F0406307006031D312D8A
:100A6000322D382D831603130F088F3960388F000D
:100A700005307006031D3D2D3E2D442D83160313B6
:100A80000F088F3950388F0004307006031D492D30
:100A90004A2D502D831603130F088F3940388F00CD
:100AA00003307006031D552D562D5C2D8316031340
:100AB0000F088F3930388F0002307006031D612D0A
:100AC000622D682D831603130F088F3920388F008D
:100AD0007003031D6C2D6D2D732D831603130F08EA
:100AE0008F3910388F007008031D772D782D7C2DDD
:100AF0008F30831603138F05831603130F1408001A
:100B00006430F0000030F1007B08FC00FD017C083F
:100B1000F2007D08F3000A128A114B260A128A118C
:100B2000700883120313B7006430F0000030F10046
:100B30007B08FC00FD017C08F2007D08F3000A122E
:100B40008A116B240A128A11700883120313B900E8
:100B50000A30F0000030F1003908FC00FD017C088B
:100B6000F2007D08F3000A128A116B240A128A111E
:100B7000700883120313B800023079067A04031D4B
:100B8000C22DC32DC52D3708E42D79037A04031D2A
:100B9000CA2DCB2DDD2D0A30F0000030F1003908D0
:100BA000FC00FD017C08F2007D08F3000A128A11A6
:100BB0004B260A128A117008E42D79087A04031D65
:100BC000E22DE32DE42D380808000030FC00003051
:100BD000FB000030FA000030F90073087204710461
:100BE00070040319F42DF52D422EFD01FD0A052E8A
:100BF0000130F8000310F00DF10DF20DF30DF80BBC
:100C0000FA2D0130F8007808FD07F31F082E092E91
:100C1000F82D0130F8000310F90DFA0DFB0DFC0D55
:100C2000F80B0B2E73087702031D202E7208760234
:100C3000031D202E71087502031D202E70087402FA
:100C4000031C232E242E332E7008F4027108031C7B
:100C5000710FF5027208031C720FF6027308031C71
:100C6000730FF702791401300310F30CF20CF10C3E
:100C7000F00CFF3E031D342E0130FD02031D412EFA
:100C8000422E092E7C08F3007B08F2007A08F1005E
:100C90007908F0000800F601F11F4F2E502E572E54
:100CA000F009F109F00A0319F10AF601F60AF31F37
:100CB0005A2E5B2E642EF209F309F20A0319F30A85
:100CC0000130F4007408F606F701F80170087104A9
:100CD00003196B2E6C2EA32EF501F50A7A2E013026
:100CE0000310F00DF10DFF3E031D702E0130F400D6
:100CF0007408F507F11F7D2E7E2E6F2E0130031034
:100D0000F70DF80DFF3E031D7F2E71087302031DC2
:100D10008B2E70087202031C8E2E8F2E962E70085A
:100D2000F2027108031CF303F3027714013003107D
:100D3000F10CF00CFF3E031D972E0130F502031D50
:100D4000A22EA32E7E2E76080319A72EA82EAD2E36
:100D5000F709F809F70A0319F80A7808F100770883
:100D6000F000080007300A128A1121250A128A11A0
:100D70000A128A1118220A128A110A128A11C4242C
:100D80000A128A110A128A116D210A128A1102307E
:100D9000F40001300A128A1189230A128A110730DD
:100DA0000A128A11F3210A128A11F401F40A02309C
:100DB0000A128A1189230A128A1101300A128A1131
:100DC000F3210A128A110A30F40001300A128A1142
:100DD00089230A128A110C300A128A11F3210A128D
:100DE0008A1183120313A701F20100300A128A113B
:100DF000DB220A128A1183120313270885000030B0
:100E00000A128A1148230A128A1183120313B300AB
:100E10000E30BA00BB01BB0A33080A128A11CF2375
:100E20000A128A1101300A128A1148230A128A1101
:100E300083120313B1000B30BA00BB01BB0A3108A7
:100E40000A128A11CF230A128A1183120313061A77
:100E50002A2F2B2FFB2E343083120313C000F130C6
:100E6000BF00BF0B312FC00B312FE92F861B392F4D
:100E70003A2F512F343083120313C000F130BF00DA
:100E8000BF0B402FC00B402F831203132708031DF5
:100E90004A2F4B2F502F0130BF003F08A707512F7B
:100EA000A701061B542F552F9E2F34308312031396
:100EB000C000F130BF00BF0B5B2FC00B5B2F831254
:100EC00003132708031D652F662F732F3B30330252
:100ED00003186B2F6C2F712F0130BF003F08B30731
:100EE000842FB301842F2703031D772F782F842F9E
:100EF0003B30310203187D2F7E2F832F0130BF003E
:100F00003F08B107842FB10133080A128A117322F6
:100F10000A128A1183120313B30031080A128A11CC
:100F200073220A128A1183120313B1003108F200EE
:100F300033080A128A11DB220A128A118312031360
:100F4000861AA32FA42FE92F343083120313C00075
:100F5000F130BF00BF0BAA2FC00BAA2F83120313BF
:100F60002708031DB42FB52FC02F33080319B92F3D
:100F7000BA2FBD2F0130B302CF2F3B30B300CF2F9C
:100F80002703031DC42FC52FCF2F31080319C92FE5
:100F9000CA2FCD2F0130B102CF2F3B30B100330823
:100FA0000A128A1173220A128A1183120313B300E0
:100FB00031080A128A1173220A128A11831203134A
:100FC000B1003108F20033080A128A11DB220A123A
:100FD0008A11831203138619EE2FEF2F362FFB2E63
:100FE0000A128A11002883132030840037300A1235
:100FF0008A1140210A128A1183010A128A11B22E23
:08400000FF3FFF3FFF3FFF3FC0
:04400E00D420FF3F7C
:00000001FF
