:100000000A128A11EB2F00308A000408840A820742
:0E001000003453343A34203420343A3400346F
:100220000A128A1142210A128A1183160313111429
:1002300008000A128A1142210A128A118316031336
:10024000111508000A128A1142210A128A11831616
:100250000313911408000A128A1142210A128A110A
:100260007008831203139300080000300A128A11E9
:1002700064210A128A1101300A128A1164210A12B9
:100280008A110800831603131419472948294229A3
:1002900011081F39031D4D294E2942290800F3007A
:1002A000F201731C5429552959297008F10071086D
:1002B000F2070310F00D0310F30C7308031D6129FE
:1002C0006229512972080800F300831203130811F0
:1002D00073080A128A1199210A128A1183120313D0
:1002E00088150B30F2006230F100F10B7529F20B2A
:1002F000752900008312031388110800F80078089C
:100300000F39F5007808F40004300310F40CFF3EB8
:10031000031D852974080F39F6000A30F0007608AD
:100320000A128A114F210A128A117507F7007708FD
:100330000800F000701C9D299E29A2298312031336
:100340000816A529831203130812F01CA829A9294D
:10035000AB298816AC298812701DAF29B029B229A3
:100360000817B3290813F01DB629B729B92988172A
:10037000BA2988130800F700F501F601D22975089B
:10038000770784000A128A1103200A128A110A12BE
:100390008A113B220A128A110130F5070318F60A66
:1003A0000030F6077508770784000A128A110320C7
:1003B0000A128A11003A031DDE29DF29BF2908002D
:1003C000831603178801890183160313850183129D
:1003D0000313850183160313880183120313880115
:1003E000FC30831603138600FC308312031386004F
:1003F000FC3083160313950081130030831203131E
:10040000B2000130B1008630B000A030AF000A1257
:100410008A11A5220A128A1108000A128A114221A1
:100420000A128A118316031391150A128A114221A6
:100430000A128A11831203131308F200F3017208DF
:10044000F4007308F5000A128A1142210A128A1177
:1004500070037104031D2D2A2E2A322A83160313DA
:100460009112352A83160313911611167508F1009F
:100470007408F0000800F40074080F39F2007408E2
:10048000F039F3008312031308157308F1000430E8
:100490000310F10CFF3E031D482A71080A128A114D
:1004A00099210A128A118312031388151A30F10058
:1004B000F10B582A000083120313881172080A12E4
:1004C0008A1199210A128A118312031388151A308E
:1004D000F100F10B692A0000831203138811080050
:1004E000F5000A128A1110210A128A11D030F00088
:1004F0000030F1000A128A112B210A128A110030F1
:10050000F000F1000A128A112B210A128A117508D3
:10051000F300F4017308F0007408F1000A128A1164
:100520002B210A128A117208F300F4017308F000FB
:100530007408F1000A128A112B210A128A110A1278
:100540008A1119210A128A11080028308312031314
:100550009400831603139101831203132F08B30031
:100560003008B4003108B5003208B600023003107C
:10057000B30DB40DB50DB60DFF3E031DB72A3608F9
:10058000F3003508F2003408F1003308F0000030C1
:10059000F7007A30F6001230F5000030F4000A124D
:1005A0008A117A250A128A117008FF3E83160313F6
:1005B00093009401871507160800FB000A128A11A0
:1005C00010210A128A11D030F0000030F1000A1216
:1005D0008A112B210A128A117B08F900FA01790885
:1005E000F0007A08F1000A128A112B210A128A11EE
:1005F0000A128A1122210A128A11D130F000003029
:10060000F1000A128A112B210A128A110030F0001F
:10061000F1000A128A110D220A128A117008FC00D8
:100620000A128A1119210A128A117C080A128A11E7
:100630007E210A128A11FC007C080800F60076036D
:10064000031D232B242B412B74087F3EF9007908CE
:10065000F50004300310F50CFF3E031D2A2B75082E
:10066000F70079080F39F80077080A128A11642117
:100670000A128A1178080A128A1164210A128A1150
:10068000632B02307606031D462B472B632B740821
:10069000BF3EF9007908F50004300310F50CFF3E69
:1006A000031D4D2B7508F70079080F39F8007708FE
:1006B0000A128A1164210A128A1178080A128A1110
:1006C00064210A128A11080083120313B40032084D
:1006D000013EF40033080A128A111E230A128A11FD
:1006E0000030F900FA00831203133408FB000A12E9
:1006F0008A1115250A128A110A128A11B0230A12C8
:100700008A1183120313AD002D080A128A113B22AD
:100710000A128A11831203133208F40033080A12F2
:100720008A111E230A128A110130F9000030FA00E2
:10073000831203133408FB000A128A1115250A12CA
:100740008A110A128A11B0230A128A118312031322
:10075000AC002C080A128A113B220A128A110800E6
:10076000F0007008031DB52BB62BB82B3030FF2BD3
:100770007003031DBC2BBD2BBF2B3130FF2B023070
:100780007006031DC42BC52BC72B3230FF2B033043
:100790007006031DCC2BCD2BCF2B3330FF2B043019
:1007A0007006031DD42BD52BD72B3430FF2B0530EF
:1007B0007006031DDC2BDD2BDF2B3530FF2B0630C5
:1007C0007006031DE42BE52BE72B3630FF2B07309B
:1007D0007006031DEC2BED2BEF2B3730FF2B083071
:1007E0007006031DF42BF52BF72B3830FF2B093047
:1007F0007006031DFC2BFD2BFF2B3930FF2B08004F
:10080000F601F31F042C052C0C2CF209F309F20A53
:100810000319F30AF601F60AF11F0F2C102C152C00
:10082000F009F109F00A0319F10A700871040319BB
:100830001A2C1B2C4A2CF501F50A292C0130031027
:10084000F00DF10DFF3E031D1F2C0130F400740864
:10085000F507F11F2C2C2D2C1E2C71087302031D83
:10086000332C70087202031C362C372C3D2C700878
:10087000F2027108031CF303F30201300310F10CC0
:10088000F00CFF3E031D3E2C0130F502031D492CE8
:100890004A2C2D2C760803194E2C4F2C542CF2097F
:1008A000F309F20A0319F30A7308F1007208F00061
:1008B000080000300A128A1199210A128A11343074
:1008C000F500F130F400F40B632CF50B632C682C6D
:1008D00003300A128A1164210A128A110D30F500C0
:1008E000FB30F400F40B722CF50B722C772C0330D8
:1008F0000A128A1164210A128A111D30F500913002
:10090000F400F40B812CF50B812C03300A128A11B0
:1009100064210A128A1102300A128A1164210A1211
:100920008A1102300A128A1164210A128A110830CF
:100930000A128A1164210A128A1100300A128A11DD
:1009400064210A128A110C300A128A1164210A12D7
:100950008A1100300A128A1164210A128A110630A3
:100960000A128A1164210A128A110800F000073065
:100970007006031DBC2CBD2CC12C703083160313D4
:100980008F0406307006031DC62CC72CCD2C831691
:1009900003130F088F3960388F0005307006031D70
:1009A000D22CD32CD92C831603130F088F3950382F
:1009B0008F0004307006031DDE2CDF2CE52C83161F
:1009C00003130F088F3940388F0003307006031D62
:1009D000EA2CEB2CF12C831603130F088F393038D7
:1009E0008F0002307006031DF62CF72CFD2C8316A9
:1009F00003130F088F3920388F007003031D012D5A
:100A0000022D082D831603130F088F3910388F001D
:100A10007008031D0C2D0D2D112D8F30831603131F
:100A20008F05831603130F1408006430F0000030A4
:100A3000F1007B08FC00FD017C08F2007D08F3005A
:100A40000A128A11E0250A128A1170088312031310
:100A5000AF006430F0000030F1007B08FC00FD01C5
:100A60007C08F2007D08F3000A128A1100240A12A1
:100A70008A11700883120313B1000A30F0000030AD
:100A8000F1003108FC00FD017C08F2007D08F30054
:100A90000A128A1100240A128A11700883120313A1
:100AA000B000023079067A04031D572D582D5A2DB7
:100AB0002F08792D79037A04031D5F2D602D722D87
:100AC0000A30F0000030F1003108FC00FD017C0824
:100AD000F2007D08F3000A128A11E0250A128A1139
:100AE0007008792D79087A04031D772D782D792DDA
:100AF000300808000030FC000030FB000030FA0035
:100B00000030F90073087204710470040319892D10
:100B10008A2DD72DFD01FD0A9A2D0130F800031012
:100B2000F00DF10DF20DF30DF80B8F2D0130F800E3
:100B30007808FD07F31F9D2D9E2D8D2D0130F800A7
:100B40000310F90DFA0DFB0DFC0DF80BA02D730829
:100B50007702031DB52D72087602031DB52D7108AD
:100B60007502031DB52D70087402031CB82DB92D34
:100B7000C82D7008F4027108031C710FF502720889
:100B8000031C720FF6027308031C730FF70279142B
:100B900001300310F30CF20CF10CF00CFF3E031DBE
:100BA000C92D0130FD02031DD62DD72D9E2D7C08A9
:100BB000F3007B08F2007A08F1007908F0000800E1
:100BC000F601F11FE42DE52DEC2DF009F109F00AF5
:100BD0000319F10AF601F60AF31FEF2DF02DF92D96
:100BE000F209F309F20A0319F30A0130F400740858
:100BF000F606F701F801700871040319002E012EA2
:100C0000382EF501F50A0F2E01300310F00DF10D0D
:100C1000FF3E031D052E0130F4007408F507F11F97
:100C2000122E132E042E01300310F70DF80DFF3E87
:100C3000031D142E71087302031D202E700872020A
:100C4000031C232E242E2B2E7008F2027108031C85
:100C5000F303F302771401300310F10CF00CFF3EA4
:100C6000031D2C2E0130F502031D372E382E132EB6
:100C7000760803193C2E3D2E422EF709F809F70A93
:100C80000319F80A7808F1007708F0000800073027
:100C90000A128A11B6240A128A110A128A11E02154
:100CA0000A128A110A128A1159240A128A110A1286
:100CB0008A1135210A128A110D30F40001300A120E
:100CC0008A111E230A128A113A300A128A113B2213
:100CD0000A128A110930F40002300A128A111E2306
:100CE0000A128A1101300A128A11BB210A128A11D2
:100CF00083120313A701AB01A901F20100300A120C
:100D00008A1170220A128A118312031327088500A0
:100D1000F20100300A128A1170220A128A11003080
:100D20000A128A11DD220A128A1183120313AB0000
:100D30000E30B200B301B30A2B080A128A116423E1
:100D40000A128A1101300A128A11DD220A128A114E
:100D500083120313A9000B30B200B301B30A2908B0
:100D60000A128A1164230A128A1183120313061AC3
:100D7000BA2EBB2E842E343083120313B800F13008
:100D8000B700B70BC12EB80BC12E692F4E3083129E
:100D90000313B800EA30B700B70BCC2EB80BCC2E3B
:100DA00000000E3083120313B200B301B30A2B0804
:100DB0000A128A1164230A128A110B308312031358
:100DC000B200B301B30A29080A128A1164230A1275
:100DD0008A1183120313861BEE2EEF2E062F34305A
:100DE00083120313B800F130B700B70BF52EB80B20
:100DF000F52E831203132708031DFF2E002F052F46
:100E00000130B7003708A707062FA701061B092FD7
:100E10000A2F392F823083120313B800DD30B70058
:100E2000B70B102FB80B102F831203132708031DC5
:100E30001A2F1B2F282F3B302B020318202F212F76
:100E4000262F0130B7003708AB07392FAB01392FF8
:100E50002703031D2C2F2D2F392F3B302902031878
:100E6000322F332F382F0130B7003708A907392F19
:100E7000A901861A3C2F3D2F692F8230831203135C
:100E8000B800DD30B700B70B432FB80B432F8312E8
:100E900003132708031D4D2F4E2F592F2B0803191D
:100EA000522F532F562F0130AB02692F3B30AB002E
:100EB000692F2703031D5D2F5E2F692F2908031952
:100EC000622F632F662F0130A902692F3B30A900E2
:100ED000692F8312031386196E2F6F2FC62EF2010E
:100EE00000300A128A1170220A128A110E308312FF
:100EF0000313B2000230B3002B080A128A116423D4
:100F00000A128A110B3083120313B2000230B300AD
:100F100029080A128A1164230A128A11B72F003095
:100F20000A128A11DD220A128A1183120313AA00FF
:100F300001300A128A11DD220A128A118312031368
:100F4000A8000E30B200B301B30A2A080A128A11AF
:100F500064230A128A110B3083120313B200B30107
:100F6000B30A28080A128A1164230A128A1183120A
:100F70000313B901B90A2B082A06031DC02FC12F7C
:100F8000C82F29082806031DC62FC72FC82FB9014F
:100F9000060CB700370C01393905031DD02FD12FAE
:100FA0008F2F0E30B2000230B30000300A128A11C7
:100FB00064230A128A110B3083120313B200023029
:100FC000B30000300A128A1164230A128A11842E97
:100FD0000A128A11002883120313A001A101A201A1
:100FE000A301A401A501A601A701A801A901AA01C5
:100FF000AB01AC01AD01AE0183010A128A11472E8B
:08400000FF3FFF3FFF3FFF3FC0
:04400E00D420FF3F7C
:00000001FF
